:020000040800F2
:10000000F006002055020008970600088F06000839
:10001000930600083F050008411500080000000095
:10002000000000000000000000000000D90B0008E4
:10003000AB0500080000000011090008FD0C0008D5
:100040006F0200086F0200086F0200086F020008CC
:100050006F0200086F0200086F0200086F020008BC
:100060006F0200086F0200086F0200086F020008AC
:100070006F0200086F0200086F0200086F0200089C
:100080006F0200086F0200086F0200086F0200088C
:100090006F0200086F0200086F0200086F0200087C
:1000A0006F0200086F0200086F0200086F0200086C
:1000B0004D0F00086F020008E31000086F020008EF
:1000C0006F0200086F0200086F0200086F0200084C
:1000D0006F0200086F0200086F0200086F0200083C
:1000E0006F0200086F0200086F0200086F0200082C
:1000F0006F0200086F0200086F0200086F0200081C
:100100006F0200086F0200086F0200086F0200080B
:100110006F0200086F0200086F0200086F020008FB
:100120006F0200086F0200086F0200086F020008EB
:100130006F0200086F0200086F0200086F020008DB
:100140006F0200086F0200086F0200086F020008CB
:100150006F0200086F0200086F0200086F020008BB
:100160006F0200086F0200086F0200086F020008AB
:100170006F0200086F0200086F0200086F0200089B
:100180006F0200086F0200086F0200086F0200088B
:100190006F0200086F0200086F0200086F0200087B
:1001A0006F0200086F0200086F02000800F002F8FA
:1001B00000F041F80AA090E8000C82448344AAF1C0
:1001C0000107DA4501D100F036F8AFF2090EBAE8BE
:1001D0000F0013F0010F18BFFB1A43F0010318477B
:1001E0006815000088150000103A24BF78C878C14F
:1001F000FAD8520724BF30C830C144BF04680C602D
:10020000704700000023002400250026103A28BF74
:1002100078C1FBD8520728BF30C148BF0B60704778
:10022000642900F07F80002070471FB501F086FA36
:100230001FBD10B510BD00F030F91146FFF7F5FFF6
:1002400001F010FA00F04EF903B4FFF7F2FF03BC1F
:1002500000F052F90948804709480047FEE7FEE7E9
:10026000FEE7FEE7FEE7FEE7FEE7FEE7FEE7FEE766
:1002700004480549054A064B70470000C10D0008B7
:10028000AD010008F0000020F0060020F002002080
:10029000F00200200FB41CB5074B06AA7B44694648
:1002A0000090059800F0DBF80020694600F0EAF8BD
:1002B0001CBC5DF814FB0000E50100002DE9F041D5
:1002C0000E460446002020622046E168884730B38D
:1002D000252805D0D4E901219047206A401CF2E787
:1002E000E168204600278847050018D0A5F14100A5
:1002F000192802D820354FF4006732462946204697
:100300002760FFF78DFF40B1012804D0F61D26F0CD
:1003100007060836D8E7361DD6E72846DAE7206A0A
:10032000BDE8F0812DE9F0410646002410687529EA
:10033000314616A510D0AFF30080002802DA404203
:1003400013A507E031688A0701D512A502E0490725
:1003500004D511A5012401E0AFF3008000210A2299
:1003600006F1240709E0B0FBF2FCB0FBF2F302FB5C
:100370001C00303078541846491C0028F3D123461D
:100380002A463046BDE8F04100F00BB800000000FE
:100390002D0000002B000000200000007047704777
:1003A00070472DE9F0470D4699469246044600F104
:1003B00024080168880604D5E06921F01001216055
:1003C00000E00120A84201DD471B00E00027A169F1
:1003D0007A1902EB0900081AA0612078C00602D43D
:1003E0002046AFF30080002608E0D4E901211AF886
:1003F00006009047206A401C761C20624E45F4DBC4
:100400002078C0060AD52046AFF3008006E0D4E984
:10041000012130209047206A401C2062381EA7F13D
:100420000107F4DC07E0D4E9012118F80500904742
:10043000206A401C2062281EA5F10105F3DC20463D
:10044000AFF300802078000602D50220BDE8F087D7
:100450000120FBE701694A1C02610878704700B57A
:100460008FB0CDE901310021059105497944CDE9ED
:10047000031011466846FFF721FF0FB000BD0000D2
:10048000E5FFFFFF0A6802F8010B0A6070470000F1
:10049000004870479000002070477546FFF7F8FF4E
:1004A000AE4605006946534620F00700854618B061
:1004B00020B5FFF7DDFEBDE820404FF000064FF00D
:1004C00000074FF000084FF0000B21F00701AC4689
:1004D000ACE8C009ACE8C009ACE8C009ACE8C009A8
:1004E0008D46704710B50446AFF300802046BDE846
:1004F0001040FFF7A9BE000001491820ABBEFEE77F
:10050000260002002DE9FC4107460C4615461E4612
:100510000121284600F0FEF90094F0B28DF80400A5
:1005200000208DF8060001208DF8070002208DF8CC
:1005300005006946384600F03FF8BDE8FC8100BF81
:10054000FEE738B500F016FA012000F0E5FA00F0F9
:1005500027FB0446012C23D1072002234FF4A87265
:1005600008210090C80400F0FDFA012000F0F4FA20
:1005700000BF392000F0A4FA0028FAD0052000F0CE
:1005800015F8002000F0BCFA4FF4A05000F0CCFAAF
:100590004FF4805000F0D4FA022000F0F5FA01E0A8
:1005A00000BFFEE700F0ACFB38BD7047014A107099
:1005B00070470000003C0240F0B50A4600210023CD
:1005C000002400BF3DE0012505FA01F3156805EAA6
:1005D00003049C4234D105684F000326BE40B54356
:1005E000056015794E00B5400668354305601579FC
:1005F000012D02D01579022D16D185684F000326F2
:10060000BE40B543856055794E00B5408668354398
:100610008560456801268E40B543456045689679FA
:100620008E40B6B235434560C5684F000326BE40D4
:10063000B543C560D5794E00B540C6683543C56041
:10064000491C1029BFD3F0BDF0B5002300244D078D
:10065000ED0E02FA05F3CE1000F1200555F82650F4
:100660004E07F70E0F26BE40B543CF1000F120060F
:1006700046F82750CE1000F1200555F8265045EADF
:100680000304CE1000F1200545F82640F0BD00BF60
:10069000FEE700BFFEE7704770B5002100230F2280
:1006A000C4781CB3174C246804F4E064C4F5E06417
:1006B000C4F30721C1F10404E3B20A4144789C4029
:1006C000E1B28478144021430C07210E0E4C0578CA
:1006D0006155047804F01F050124AC4005786D11C4
:1006E000AD0005F1E025C5F8004109E0047804F00B
:1006F0001F050124AC40054D0678761145F82640CB
:1007000070BD00000CED00E000E400E080E100E0DE
:1007100002490143024A1160704700000000FA05D7
:100720000CED00E010B50346B0EE404AF0EE604A32
:10073000B0EE415AB0EE613AF0EE423A0C4683F820
:10074000382083F839409FED180A83ED090A9FEDA0
:10075000160A83ED000A9FED140A83ED010A9FED4E
:10076000120A83ED020A9FED100A83ED0D0AB5EE21
:10077000C03AF1EE10FA02DD83ED0A3A03E0B7EE7B
:10078000000A83ED0A0AF0EE620AB0EE630A184628
:1007900000F00CF8B0EE451AF0EE640AB0EE440A30
:1007A000184600F079F810BD00000000B4EEE00A31
:1007B000F1EE10FA00DB704780ED0B0AC0ED0C0A79
:1007C00090F8391001292FD190ED021AB4EEC01A19
:1007D000F1EE10FA02D2B0EE401A0BE090ED021AE0
:1007E000B4EEE01AF1EE10FA02DDB0EE601A01E0AC
:1007F00090ED021A80ED021A90ED091AB4EEC01ABB
:10080000F1EE10FA02D2B0EE401A0BE090ED091AA8
:10081000B4EEE01AF1EE10FA02DDB0EE601A01E07B
:1008200090ED091A80ED091A00BFC4E700B5024631
:10083000F0EE402A92ED041AF0EE410A92ED031A0E
:10084000B0EE410AB0EE621A104600F025F800BD85
:1008500000B50246F0EE402AD2ED050AB0EE601A6D
:10086000D2ED030AB0EE600AF0EE620A104600F024
:1008700013F800BD00B50246F0EE402A92ED050ADD
:10088000B0EE401A92ED040AF0EE400AB0EE620AB1
:10089000104600F001F800BDB5EEC00AF1EE10FA06
:1008A00009D3F5EEC00AF1EE10FA04D3B5EEC01A82
:1008B000F1EE10FA00D2704780ED030AC0ED040A91
:1008C00080ED051A80ED060AD0ED0A1A61EEA01A35
:1008D000C0ED071AD0ED0A1A81EE212A80ED082A10
:1008E00090F83810012911D1D0ED061AF1EE611AF5
:1008F000C0ED061AD0ED071AF1EE611AC0ED071A25
:10090000D0ED081AF1EE611AC0ED081A00BFD2E767
:100910007047000029B1064A12680243044B1A606E
:1009200004E0034A12688243014B1A6070470000DA
:100930003038024029B1064A12680243044B1A605B
:1009400004E0034A12688243014B1A6070470000BA
:100950004038024029B1064A12680243044B1A602B
:1009600004E0034A12688243014B1A60704700009A
:10097000443802401448006840F001001249086001
:1009800000201149083108600F4800680F490840ED
:100990000D4908600E48091D08600E480A49843157
:1009A00008600B481038091D08600748006820F4EB
:1009B000802005490860002003490C310860024985
:1009C0008C3108607047000000380240FFFFF6EAF3
:1009D0001030002400300020F0B500210022002457
:1009E000022500260223324F3F6807F00C0121B197
:1009F000042905D0082937D105E02E4F076036E0DD
:100A00002D4F076033E02A4F3F1F3F68C7F38056E2
:100A1000274F3F1F3F6807F03F036EB1264FB7FBDC
:100A2000F3F7DFF88CC0ACF1040CDCF800C0CCF3B9
:100A3000881C07FB0CF40CE01E4FB7FBF3F7DFF844
:100A400070C0ACF1040CDCF800C0CCF3881C07FBD0
:100A50000CF4174F3F1F3F68C7F301477F1C7D0011
:100A6000B4FBF5F7076002E0124F076000BF00BF5C
:100A70000F4F3F6807F0F0010909104F7A5C0768D3
:100A8000D74047600A4F3F6807F4E051890A0B4F8F
:100A90007A5C4768D7408760054F3F6807F460413C
:100AA000490B064F7A5C4768D740C760F0BD00002D
:100AB000083802400024F40000127A0014000020DC
:100AC00010B501460022002300204A11012A02D15C
:100AD0000A4C236808E0022A03D1084C70342368CA
:100AE00002E0064C7434236801F01F020124944094
:100AF0001C400CB1012000E0002010BD0038024075
:100B000001460020034A106820F0F00008431060FE
:100B100070470000083802400021024A1170114657
:100B2000087070470238024001460020034A1068EE
:100B300020F4E0500843106070470000083802407D
:100B400001460020034A106820F4604040EAC100DA
:100B5000106070470838024001490866704700007D
:100B60000000474270B5049C41EA82150126C6EB9D
:100B7000530645EA0645054345EA0465014E3560DE
:100B800070BD00000438024001460020034A10688E
:100B900020F003000843106070470000083802404E
:100BA00038B5002000900024002500BF3120FFF759
:100BB00087FF05460098401C00900098B0F5A04FB4
:100BC00001D0002DF2D03120FFF77AFF08B10124C7
:100BD00000E00024204638BD704700000CB500201E
:100BE000019000904148006840F480303F4908601F
:100BF00000BF3E48006800F4003000900198401C9F
:100C00000190009818B90198B0F5A04FF1D137487C
:100C1000006800F4003010B10120009001E00020D5
:100C200000900098012860D130484030006840F0C2
:100C300080502E49403108602D48006840F4404003
:100C40002B490860294808300068284908310860A5
:100C50000846006840F4004008600846006840F418
:100C6000A05008602348091F0860081F006840F072
:100C70008070091F086000BF1C48006800F0007009
:100C80000028F9D01A48006840F4803018490860FC
:100C900000BF1748406800F480300028F9D014489D
:100CA000006840F400301249086000BF10484068F6
:100CB00000F400300028F9D040F205700E490860B9
:100CC0000A480830006820F003000849083108602D
:100CD0000846006840F00200086000BF0348083082
:100CE000006800F00C000828F8D10CBD0038024064
:100CF00000700040195A4007003C02407047000055
:100D000070B500200022022300240221274D2D6807
:100D100005F00C0020B1042806D0082834D107E0E3
:100D2000234D244E356033E0234D224E35602FE0B5
:100D30001E4D2D1F2D68C5F380541C4D2D1F2D6891
:100D400005F03F0154B11C4DB5FBF1F5174E361FB0
:100D50003668C6F3881605FB06F209E0144DB5FBAC
:100D6000F1F5124E361F3668C6F3881605FB06F2FB
:100D70000E4D2D1F2D68C5F301456D1C6B00B2FB98
:100D8000F3F50C4E356003E0094D0A4E356000BFA7
:100D900000BF064D2D68C5F30315084E705D054D67
:100DA0002D68C540034E356070BD00000838024014
:100DB0000024F4000000002000127A00040000204B
:100DC00010B51548006840F47000134908601348D6
:100DD000006840F001001149086000200F49083107
:100DE00008600E4800680E4908400C4908600D482C
:100DF000091D0860081F006820F48020091F086092
:100E0000002006490C310860FFF7E8FE4FF0006053
:100E100001498039086010BD88ED00E000380240CB
:100E2000FFFFF6FE10300024F0B50C4615460021F9
:100E30000022068C4FF6FE773E400684018B028C22
:100E40004FF60C7631407E1C06EA03162E433143E2
:100E50004FF6F576324044F00106324301830284B6
:100E6000F0BDF0B50C461546002100220026078C87
:100E70004FF6EF7C07EA0C070784018B028C4FF6D4
:100E8000FF7707EA041640F6FF4739404FF6FF7731
:100E900007EA033739434FF6FF7707EA0527394357
:100EA0004FF65F773A4046F010073A4301830284D9
:100EB000F0BDF0B50C461546002100220026078C37
:100EC0004FF6FF6C07EA0C070784818B028C4FF604
:100ED000FF7707EA04264FF60C7739404FF6FF7785
:100EE00007EA03172F4339434FF2FF573A4046F4BE
:100EF00080773A4381830284F0BDF0B50C461546F5
:100F0000002100220026078C4EF6FF7C07EA0C0722
:100F10000784818B028C4FF6FF7707EA043640F690
:100F2000FF4739404FF6FF7707EA052739434FF669
:100F3000FF7707EA0337394345F6FF773A4046F42F
:100F400080573A4381830284F0BD000010B501212F
:100F5000880700F0F7F8012873D13E4800683E4941
:100F600008600121880700F0BDF83B4800683B4954
:100F70000968884207DD3848006838490968401A1E
:100F8000374908600CE034480068344909688842F1
:100F900006DC3248006830490968401A3049086068
:100FA0003048006830490860084600684AF6AA21BF
:100FB000884220DD2D48006888421CDD2A480068F0
:100FC0002A490968884207DD2748006827490968D7
:100FD000401A274908600EE0234800682349096841
:100FE000884208DA204800684042204909680844DD
:100FF00040421F4908601C4800684AF6AA218842FE
:101000001FDA1A48006888421BDA17480068174937
:101010000968884207DD1548006813490968401AC5
:10102000134908600DE010480068104909688842BB
:1010300007DA0D48006840420C49096808440C4929
:1010400008600848006809490860024800680349C8
:10105000086010BD24040040380000203C0000203F
:101060002800002024080040300000203400002028
:101070002C0000201FB501210846FFF75BFC40F261
:101080008F10029042F2CF00ADF804000020ADF8BE
:101090000C00ADF8060001A94FF0804000F0CAF83E
:1010A0000121880700F01EF801221146900700F088
:1010B00089F84FF4C060FFF72BFB1C208DF800006F
:1010C00001208DF8010000208DF8020001208DF82C
:1010D00003006846FFF7E0FA0121880700F005F8F1
:1010E0001FBD7047CA430282704721B1028842F097
:1010F0000102028004E002884FF6FE731A4002806B
:101100007047F0B50C4615461E460021002200230C
:101110000189028B038C4FF6F877394021434FF653
:10112000FC473A4040F201173A434FF6DD773B4027
:101130004FF6FF7707EA06172F433B4301810283EF
:101140000384F0BD02460020138A0B400BB101203E
:1011500000E00020704770B505460C46208850B965
:101160002389A28861882846FFF75EFEE188284629
:1011700000F033F825E0208804280AD12389A288CA
:1011800061882846FFF76DFEE188284600F02EF8BA
:1011900017E0208808280AD12389A2886188284678
:1011A000FFF787FEE188284600F02DF809E0238943
:1011B000A28861882846FFF7A0FEE188284600F053
:1011C0002BF870BD1AB183890B43838102E08389B8
:1011D0008B438381704741627047028B4FF6F373F4
:1011E0001A400283028B0A4302837047028B4FF23C
:1011F000FF331A400283028B4FF6FF7303EA012389
:101200001A4302837047828B4FF6F3731A4082832E
:10121000828B0A4382837047828B4FF2FF331A40DE
:101220008283828B4FF6FF7303EA01231A43828382
:101230007047000000220288184B98420ED0184BCD
:1012400098420BD0B0F1804F08D0164B984205D091
:10125000154B984202D0154B984204D14FF68F732C
:101260001A404B881A43124B984207D0114B9842B0
:1012700004D04FF6FF431A400B891A4302804B6893
:10128000C3620B880385054B984202D0044B9842F9
:1012900001D18B7A038601238382704700000140CD
:1012A000000401400004004000080040000C004021
:1012B000001000400014004010B501211020FFF77D
:1012C00049FB01210846FFF725FB072209211048A9
:1012D000FFF7BAF907220A210D48FFF7B5F94FF4D5
:1012E000806251100A4800F0FEF80A4800F029F820
:1012F0002521084800F00EF9012240F22551054849
:1013000000F043F80121034800F00FF810BD000081
:10131000000002400010014001F40072B2F5007FAD
:1013200000D100BFCA430280704721B1828942F4D4
:101330000052828104E082894DF6FF731A40828157
:1013400070471FB504464FF4165000900020ADF8CA
:101350000C000C20ADF80A000020ADF80800ADF834
:101360000600ADF804006946204600F033F81FBDC2
:1013700002460020B1F5007F00D100BF13880B406A
:101380000BB1012000E000207047F0B503460024B7
:1013900000260025002040F66A17B94200D100BFA0
:1013A0001846C1F3421401F01F06012707FA06F59B
:1013B000012C01D10C3004E0022C01D1103000E0EE
:1013C00014301AB107682F43076002E00768AF4383
:1013D0000760F0BD2DE9FF4705460E460024A146F3
:1013E00000BFA046B08900B100BF2C8A24F440544D
:1013F000F08804432C82AC8941F20C608443B088AD
:1014000031890843718908430443AC81AC8A24F4D0
:101410004074B0890443AC826846FFF7DDFA204887
:10142000854202D01F48854202D1DDF80C9001E0D0
:10143000DDF80890A88900F4004040B109EBC9002C
:1014400000EB091031684900B0FBF1F707E009EB48
:10145000C90000EB091031688900B0FBF1F7642086
:10146000B7FBF0F004012009642101FB1078A88982
:1014700000F4004040B1322000EBC800B0FBF1F0B6
:1014800000F00700044308E0322000EB081064215C
:10149000B0FBF1F000F00F0004432C81BDE8FF87A2
:1014A000001001400014014010B5044600BF802127
:1014B0000448FFF75DFF0028F9D02146014800F0FD
:1014C0000EF810BD0010014010B5044603E014F8FA
:1014D000010BFFF7E9FF20780028F8D110BDC1F318
:1014E0000802828070477CB506460C46154644EAE1
:1014F0000500009002208DF804008DF80500002002
:101500008DF8060001208DF8070069463046FFF788
:1015100053F87CBD38B505460C4640F225512846A7
:10152000FFF7FAFE8DF8004001208DF8030000203F
:101530008DF801008DF802006846FFF7ADF838BD60
:1015400000BFFEE700B587B001210220FFF7F2F9E6
:1015500002230122C0211D48FEF7D4FF02220621EA
:101560001A48FFF771F8022207211848FFF76CF8B4
:101570000020ADF804004FF6FF7002900020ADF897
:101580000600ADF80C0001A91148FFF753FE042036
:10159000ADF810000020ADF81200ADF818000120E1
:1015A000ADF8140004A90A48FFF7D5FD00231A4638
:1015B00003210748FFF7A5FD00210548FFF70BFEB3
:1015C00001210348FFF791FD07B000BD0000024074
:1015D0000004004000B587B001210420FFF7AAF9FC
:1015E00002231A46C0211D48FEF78CFF0222062165
:1015F0001A48FFF729F8022207211848FFF724F8B4
:101600000020ADF804004FF6FF7002900020ADF806
:101610000600ADF80C0001A91148FFF70BFE0420ED
:10162000ADF810000020ADF81200ADF81800012050
:10163000ADF8140004A90A48FFF78DFD00231A46EF
:1016400003210748FFF75DFD00210548FFF7C3FDB3
:1016500001210348FFF749FD07B000BD0004024027
:10166000000800408EB0FEF76CFFFFF76BFFFFF73E
:10167000B1FFFFF721FEFFF7FDFC00220121DFEDA6
:101680001F2A9FED1F2ADFED1F1A9FED1D1ADFEDA8
:101690001C0A9FED1B0A1C48FFF744F83C201B491D
:1016A00008809FED1B0A1848FFF7E4F8B2EE040A21
:1016B0001548FFF7CDF89FED120A1348FFF7B6F86B
:1016C0001248008800EE900AB8EE600A0E4880EDDD
:1016D0000D0A00BF11E00F4802680FA101A8FEF734
:1016E000D9FD01A8FFF7F0FE0E4802680EA101A87F
:1016F000FEF7D0FD01A8FFF7E7FEECE7003C03464C
:10170000000000008FC2F53C540000204A00002079
:101710000000C843280000205053503A2025640D93
:101720000A0000002C0000205053505F656E636F6C
:101730006465723A2025640D0A0000004FF0407085
:10174000E1EE100A70470000681700080000002052
:1017500054000000E8010008BC17000854000020F5
:101760009C060000040200080095BA0A0000000070
:101770000000000001020304060708090000000041
:101780000102030401020304060708090000000027
:101790000000000000000000000000000000000049
:1017A0000000000000000000000000000000000039
:0C17B0000000000000000000000000002D
:04000005080001AD41
:00000001FF
