:020000040800F2
:10000000F8070020550200081B0800081308000824
:100010001708000821060008A314000800000000CB
:10002000000000000000000000000000710B00084C
:100030001F07000800000000A9080008950C000830
:100040006F0200086F0200086F0200086F020008CC
:100050006F0200086F0200086F0200086F020008BC
:100060006F0200086F0200086F0200086F020008AC
:100070006F0200086F0200086F0200086F0200089C
:100080006F0200086F0200086F0200086F0200088C
:100090006F0200086F0200086F0200086F0200087C
:1000A0006F0200086F0200086F0200086F0200086C
:1000B0005D0F0008E50F00086F0200086F020008DE
:1000C0006F0200086F0200086F0200086F0200084C
:1000D0006F0200086F0200086F0200086F0200083C
:1000E0006F0200086F0200086F0200086F0200082C
:1000F0006F0200086F0200086F0200086F0200081C
:100100006F0200086F0200086F0200086F0200080B
:100110006F0200086F0200086F0200086F020008FB
:100120006F0200086F0200086F0200086F020008EB
:100130006F0200086F0200086F0200086F020008DB
:100140006F0200086F0200086F0200086F020008CB
:100150006F0200086F0200086F0200086F020008BB
:100160006F0200086F0200086F0200086F020008AB
:100170006F0200086F0200086F0200086F0200089B
:100180006F0200086F0200086F0200086F0200088B
:100190006F0200086F0200086F0200086F0200087B
:1001A0006F0200086F0200086F02000800F002F8FA
:1001B00000F041F80AA090E8000C82448344AAF1C0
:1001C0000107DA4501D100F036F8AFF2090EBAE8BE
:1001D0000F0013F0010F18BFFB1A43F0010318477B
:1001E0008C150000AC150000103A24BF78C878C107
:1001F000FAD8520724BF30C830C144BF04680C602D
:10020000704700000023002400250026103A28BF74
:1002100078C1FBD8520728BF30C148BF0B60704778
:10022000642900F07F80002070471FB501F096FA26
:100230001FBD10B510BD00F050F91146FFF7F5FFD6
:1002400001F0D4F900F06EF903B4FFF7F2FF03BC3C
:1002500000F072F90948804709480047FEE7FEE7C9
:10026000FEE7FEE7FEE7FEE7FEE7FEE7FEE7FEE766
:1002700004480549054A064B70470000590D00081F
:10028000AD010008F8010020F8070020F803002065
:10029000F80300200FB41CB5074B06AA7B4469463F
:1002A0000090059800F0FBF80020694600F00AF97C
:1002B0001CBC5DF814FB0000250200002DE9F04194
:1002C0000E460446002020622046E168884730B38D
:1002D000252805D0D4E901219047206A401CF2E787
:1002E000E168204600278847050018D0A5F14100A5
:1002F000192802D820354FF4006732462946204697
:100300002760FFF78DFF40B1012804D0F61D26F0CD
:1003100007060836D8E7361DD6E72846DAE7206A0A
:10032000BDE8F0812DE9F0410646002410687529EA
:10033000314616A510D0AFF30080002802DA404203
:1003400013A507E031688A0701D512A502E0490725
:1003500004D511A5012401E0AFF3008000210A2299
:1003600006F1240709E0B0FBF2FCB0FBF2F302FB5C
:100370001C00303078541846491C0028F3D123461D
:100380002A463046BDE8F04100F02AB800000000DF
:100390002D0000002B0000002000000010B5431CC1
:1003A00002E010F8011B71B18107FAD14FF0013260
:1003B00002C88C1A8C4314EAC211F9D0C01A0A067A
:1003C00003D0C01E10BDC01A10BD0A0401D0801E8B
:1003D00010BD0902FCD0401E10BD70477047704729
:1003E0002DE9F0470D4699469246044600F124084F
:1003F0000168880604D5E06921F01001216000E061
:100400000120A84201DD471B00E00027A1697A19FD
:1004100002EB0900081AA0612078C00602D4204629
:10042000AFF30080002608E0D4E901211AF80600A5
:100430009047206A401C761C20624E45F4DB2078F1
:10044000C0060AD52046AFF3008006E0D4E90121BA
:1004500030209047206A401C2062381EA7F1010717
:10046000F4DC07E0D4E9012118F805009047206A80
:10047000401C2062281EA5F10105F3DC2046AFF3E5
:1004800000802078000602D50220BDE8F087012018
:10049000FBE7000001694A1C02610878704700B55B
:1004A0008FB0CDE901310021059105497944CDE9AD
:1004B000031011466846FFF701FF0FB000BD0000B2
:1004C000E5FFFFFF0A6802F8010B0A6070470000B1
:1004D000004870479801002070477546FFF7F8FF05
:1004E000AE4605006946534620F00700854618B021
:1004F00020B5FFF7BDFEBDE820404FF000064FF0ED
:1005000000074FF000084FF0000B21F00701AC4648
:10051000ACE8C009ACE8C009ACE8C009ACE8C00967
:100520008D46704710B50446AFF300802046BDE805
:100530001040FFF789BE000001491820ABBEFEE75E
:10054000260002002DE9FC4107460C4615461E46D2
:100550000121284600F0AAF900948DF804600020DB
:100560008DF8060001208DF8070002208DF80500A7
:100570006946384600F0DAF8BDE8FC8110B510484D
:10058000006840F480000E4908600E4800F0B6F89C
:1005900040200C49C860002048614FF480608861A9
:1005A00000200862C86148624FF4803088620020F1
:1005B000C8620320086300204863886310BD000000
:1005C000303802405C01002070B506460C461546E6
:1005D0001148006808B1002070BD10480561301D49
:1005E0000E494860084684604FF0006008600A4881
:1005F000001F00F02BFE09490748001F00F052F8C9
:1006000001210548001F00F041F8012280213046F9
:1006100000F081FE0120DFE7BC6402405C010020A5
:1006200000BFFEE738B500F071F9012000F040FA94
:1006300000F082FA0446012C23D1072002234FF454
:10064000A87208210090C80400F058FA012000F0B8
:100650004FFA00BF392000F0FFF90028FAD005203A
:1006600000F05EF8002000F017FA4FF4A05000F000
:1006700027FA4FF4805000F02FFA022000F050FAD1
:1006800001E000BFFEE700F007FB38BD21B10268C2
:1006900042F00102026003E0026822F001020260FF
:1006A0007047000010B500220268134B1A40CC6856
:1006B0000B6823434C6923438C692343CC69234350
:1006C0000C6A23434C6A23438C6A23434C6B2343B9
:1006D0008C6B23431A430260426922F00702D1E97E
:1006E0000B3423431A4342610B6943604B688360B8
:1006F0008B68C36010BD00003F801CF000210160CA
:1007000041608160C160016141618161C1610162DB
:1007100041628162C16201634163816370477047D6
:10072000014A107070470000003C0240F0B50A46D4
:1007300000210023002400BF3DE0012505FA01F35C
:10074000156805EA03049C4234D105684F0003266E
:10075000BE40B543056015794E00B5400668354387
:1007600005601579012D02D01579022D16D1856805
:100770004F000326BE40B543856055794E00B54015
:10078000866835438560456801268E40B5434560DF
:10079000456896798E40B6B235434560C5684F00CE
:1007A0000326BE40B543C560D5794E00B540C66846
:1007B0003543C560491C1029BFD3F0BDF0B50023F7
:1007C00000244D07ED0E02FA05F3CE1000F12005CE
:1007D00055F826504E07F70E0F26BE40B543CF10F2
:1007E00000F1200646F82750CE1000F1200555F8FC
:1007F000265045EA0304CE1000F1200545F82640B6
:10080000F0BD418370470183704742694A404261AD
:10081000704700BFFEE700BFFEE7704770B50021DC
:1008200000230F22C4781CB3174C246804F4E0643E
:10083000C4F5E064C4F30721C1F10404E3B20A4142
:1008400044789C40E1B28478144021430C07210E87
:100850000E4C05786155047804F01F050124AC4066
:1008600005786D11AD0005F1E025C5F8004109E0FE
:10087000047804F01F050124AC40054D067876117C
:1008800045F8264070BD00000CED00E000E400E0FB
:1008900080E100E002490143024A11607047000014
:1008A0000000FA050CED00E07047000029B1064A8F
:1008B00012680243044B1A6004E0034A1268824340
:1008C000014B1A60704700003038024029B1064AD7
:1008D00012680243044B1A6004E0034A1268824320
:1008E000014B1A60704700004038024029B1064AA7
:1008F00012680243044B1A6004E0034A1268824300
:10090000014B1A60704700004438024014480068E8
:1009100040F00100124908600020114908310860C8
:100920000F4800680F4908400D4908600E48091D2E
:1009300008600E480A49843108600B481038091DC8
:1009400008600748006820F48020054908600020FE
:1009500003490C31086002498C310860704700007F
:1009600000380240FFFFF6EA10300024003000207B
:10097000F0B5002100220024022500260223324F78
:100980003F6807F00C0121B1042905D0082937D1AF
:1009900005E02E4F076036E02D4F076033E02A4F09
:1009A0003F1F3F68C7F38056274F3F1F3F6807F040
:1009B0003F036EB1264FB7FBF3F7DFF88CC0ACF105
:1009C000040CDCF800C0CCF3881C07FB0CF40CE032
:1009D0001E4FB7FBF3F7DFF870C0ACF1040CDCF886
:1009E00000C0CCF3881C07FB0CF4174F3F1F3F6877
:1009F000C7F301477F1C7D00B4FBF5F7076002E0F9
:100A0000124F076000BF00BF0F4F3F6807F0F001B3
:100A10000909104F7A5C0768D74047600A4F3F6862
:100A200007F4E051890A0B4F7A5C4768D74087602A
:100A3000054F3F6807F46041490B064F7A5C4768F1
:100A4000D740C760F0BD0000083802400024F40021
:100A500000127A001400002010B501460022002385
:100A600000204A11012A02D10A4C236808E0022A18
:100A700003D1084C7034236802E0064C74342368B8
:100A800001F01F02012494401C400CB1012000E041
:100A9000002010BD0038024001460020034A1068C3
:100AA00020F0F00008431060704700000838024052
:100AB0000021024A11701146087070470238024046
:100AC00001460020034A106820F4E05008431060FB
:100AD000704700000838024001460020034A1068B1
:100AE00020F4604040EAC1001060704708380240BE
:100AF00001490866704700000000474270B5049C39
:100B000041EA82150126C6EB530645EA0645054330
:100B100045EA0465014E356070BD000004380240AE
:100B200001460020034A106820F0030008431060CB
:100B3000704700000838024038B5002000900024BB
:100B4000002500BF3120FFF787FF05460098401CB5
:100B500000900098B0F5A04F01D0002DF2D03120C8
:100B6000FFF77AFF08B1012400E00024204638BDD9
:100B7000704700000CB500200190009041480068CB
:100B800040F480303F49086000BF3E48006800F4F0
:100B9000003000900198401C0190009818B901980D
:100BA000B0F5A04FF1D13748006800F4003010B123
:100BB0000120009001E0002000900098012860D101
:100BC00030484030006840F080502E494031086085
:100BD0002D48006840F440402B49086029480830FF
:100BE00000682849083108600846006840F4004061
:100BF00008600846006840F4A05008602348091FB8
:100C00000860081F006840F08070091F086000BF7E
:100C10001C48006800F000700028F9D01A480068ED
:100C200040F480301849086000BF1748406800F45D
:100C300080300028F9D01448006840F40030124990
:100C4000086000BF1048406800F400300028F9D068
:100C500040F205700E4908600A480830006820F02C
:100C600003000849083108600846006840F00200A7
:100C7000086000BF03480830006800F00C00082836
:100C8000F8D10CBD0038024000700040195A4007EE
:100C9000003C02407047000070B500200022022393
:100CA00000240221274D2D6805F00C0020B10428F6
:100CB00006D0082834D107E0234D244E356033E0B8
:100CC000234D224E35602FE01E4D2D1F2D68C5F39C
:100CD00080541C4D2D1F2D6805F03F0154B11C4D53
:100CE000B5FBF1F5174E361F3668C6F3881605FBBF
:100CF00006F209E0144DB5FBF1F5124E361F3668C9
:100D0000C6F3881605FB06F20E4D2D1F2D68C5F3A0
:100D100001456D1C6B00B2FBF3F50C4E356003E032
:100D2000094D0A4E356000BF00BF064D2D68C5F362
:100D30000315084E705D054D2D68C540034E3560A6
:100D400070BD0000083802400024F40000000020BC
:100D500000127A000400002010B51548006840F425
:100D60007000134908601348006840F00100114901
:100D7000086000200F49083108600E4800680E49DD
:100D800008400C4908600D48091D0860081F0068EC
:100D900020F48020091F0860002006490C310860FB
:100DA000FFF7E8FE4FF0006001498039086010BD90
:100DB00088ED00E000380240FFFFF6FE103000240E
:100DC000F0B50C46154600210022068C4FF6FE7742
:100DD0003E400684018B028C4FF60C7631407E1C1F
:100DE00006EA03162E4331434FF6F576324044F0BF
:100DF0000106324301830284F0BDF0B50C4615466E
:100E0000002100220026078C4FF6EF7C07EA0C0732
:100E10000784018B028C4FF6FF7707EA041640F631
:100E2000FF4739404FF6FF7707EA033739434FF65C
:100E3000FF7707EA052739434FF65F773A4046F0D8
:100E400010073A4301830284F0BDF0B50C46154605
:100E5000002100220026078C4FF6FF6C07EA0C07E2
:100E60000784818B028C4FF6FF7707EA04264FF642
:100E70000C7739404FF6FF7707EA03172F433943C2
:100E80004FF2FF573A4046F480773A438183028419
:100E9000F0BDF0B50C461546002100220026078C57
:100EA0004EF6FF7C07EA0C070784818B028C4FF615
:100EB000FF7707EA043640F6FF4739404FF6FF77E1
:100EC00007EA052739434FF6FF7707EA0337394327
:100ED00045F6FF773A4046F480573A4381830284CF
:100EE000F0BD00001CB501210846FFF7FFFC012101
:100EF0000846FFF7EBFC4FF48070009002208DF85D
:100F0000040003208DF8050000208DF806008DF800
:100F1000070069460E48FFF709FC012208210C482A
:100F2000FFF74CFC09200B49088042F2CF004860D3
:100F30000020488008818872074800F02DF90121BF
:100F4000054800F076F80121034800F07EF81CBD4A
:100F500000000240F40000200000014010B5012113
:100F6000880700F0A2F8012807D141030348FFF7E2
:100F70004CFC0121880700F059F810BD0018024010
:100F800010B501210846FFF7A1FC53201349486022
:100F900000200880088148804FF0804000F0FCF875
:100FA0000121880700F042F801221146900700F065
:100FB000BCF84FF4C060FFF76DFC1C2008490870B6
:100FC0000020487088700120C8700846FFF726FC92
:100FD0000121880700F02DF810BD0000F40000206A
:100FE000CC00002010B501210E4800F05EF8012869
:100FF00017D10C48008800F0100038B10A4800688A
:10100000A0F57F40FF380849086006E00648006800
:101010004FF6FF710844044908600121014800F0BF
:1010200005F810BD0004004024000020CA430282DD
:10103000704721B1028842F00102028004E0028878
:101040004FF6FE731A400280704731B1B0F8442069
:1010500042F40042A0F8442005E0B0F84420C2F376
:101060000E02A0F844207047F0B50C4615461E4607
:101070000021002200230189028B038C4FF6F877B0
:10108000394021434FF6FC473A4040F201173A43BA
:101090004FF6DD773B404FF6FF7707EA06172F4301
:1010A0003B43018102830384F0BD02460020138A82
:1010B0000B400BB1012000E00020704770B50546E1
:1010C0000C46208850B92389A28861882846FFF7FA
:1010D00077FEE188284600F033F825E020880428D0
:1010E0000AD12389A28861882846FFF786FEE18815
:1010F000284600F02EF817E0208808280AD1238916
:10110000A28861882846FFF7A0FEE188284600F003
:101110002DF809E02389A28861882846FFF7B9FEE7
:10112000E188284600F02BF870BD1AB183890B4383
:10113000838102E083898B438381704741627047DA
:10114000028B4FF6F3731A400283028B0A43028329
:101150007047028B4FF2FF331A400283028B4FF627
:10116000FF7303EA01231A4302837047828B4FF611
:10117000F3731A408283828B0A4382837047828B87
:101180004FF2FF331A408283828B4FF6FF7303EADC
:1011900001231A438283704700220288184B984229
:1011A0000ED0184B98420BD0B0F1804F08D0164BA0
:1011B000984205D0154B984202D0154B984204D165
:1011C0004FF68F731A404B881A43124B984207D040
:1011D000114B984204D04FF6FF431A400B891A4333
:1011E00002804B68C3620B880385054B984202D08E
:1011F000044B984201D18B7A038601238382704786
:1012000000000140000401400004004000080040CC
:10121000000C0040001000400014004030B50246B1
:10122000084B084C0834141B1825B4FBF5F00428AF
:1012300001D31B1D001F01F03D04034D2D5CAC408C
:101240001C6030BD086402406617000810B50446F3
:101250003D212046FFF7E2FF10BD000010B501213F
:101260001020FFF743FB01210846FFF71FFB072271
:1012700009211148FFF7A2FA07220A210E48FFF7B9
:101280009DFA4FF4806251100B4800F0DDF84FF4E6
:10129000E1310A4800F029F82521084800F0EBF870
:1012A000012240F22551054800F03EF80121034893
:1012B00000F00FF810BD00000000024000100140D7
:1012C00001F40072B2F5007F00D100BFCA43028072
:1012D000704721B1828942F40052828104E0828900
:1012E0004DF6FF731A40828170477FB505460C4664
:1012F00000940020ADF80C000C20ADF80A0000208E
:10130000ADF80800ADF80600ADF8040069462846BF
:1013100000F030F87FBD1AB1838A0B43838202E06C
:10132000838A8B4383827047F0B5034600240026EE
:101330000025002040F66A17B94200D100BF1846C8
:10134000C1F3421401F01F06012707FA06F5012C2C
:1013500001D10C3004E0022C01D1103000E0143037
:101360001AB107682F43076002E00768AF430760C0
:10137000F0BD00002DE9FF4705460E460024A146BA
:1013800000BFA046B08900B100BF2C8A24F44054AD
:10139000F08804432C82AC8941F20C608443B0880D
:1013A00031890843718908430443AC81AC8A24F431
:1013B0004074B0890443AC826846FFF7D9FA2048EC
:1013C000854202D01F48854202D1DDF80C9001E031
:1013D000DDF80890A88900F4004040B109EBC9008D
:1013E00000EB091031684900B0FBF1F707E009EBA9
:1013F000C90000EB091031688900B0FBF1F76420E7
:10140000B7FBF0F004012009642101FB1078A889E2
:1014100000F4004040B1322000EBC800B0FBF1F016
:1014200000F00700044308E0322000EB08106421BC
:10143000B0FBF1F000F00F0004432C81BDE8FF8702
:1014400000100140001401407CB506460C461546CC
:1014500044EA0500009002208DF804008DF8050094
:1014600000208DF8060001208DF8070069463046FF
:10147000FFF75CF97CBD38B505460C4640F22551B6
:101480002846FFF71DFF8DF8004001208DF803006E
:1014900000208DF801008DF802006846FFF7BEF9C4
:1014A00038BD00BFFEE7000010B501210220FFF7A4
:1014B0000DFA02230122C0212548FFF743F802223A
:1014C00006212348FFF77AF9022207212048FFF777
:1014D00075F900201F4908804FF6FF704860002012
:1014E000488008811C48FFF757FE04201B490880EC
:1014F000002048800881012088801748FFF7DEFD22
:1015000000231A4603211448FFF7AEFD00211248BC
:10151000FFF714FE01211048FFF788FD0122114654
:101520000D48FFF702FE4FF4A060FFF7B3F91D204E
:101530000B49087002204870002088700120C87094
:101540000846FFF76BF901210348FFF772FD10BD54
:1015500000000240F40000200004004000010020D0
:10156000CC00002010B501210420FFF7AFF90223C1
:101570001A46C0211948FEF7E5FF02220621174846
:10158000FFF71CF9022207211448FFF717F9002082
:10159000134908804FF6FF7048600020488008819A
:1015A0001048FFF7F9FD04200F490880002048800B
:1015B0000881012088800B48FFF780FD00231A4630
:1015C00003210848FFF750FD00210648FFF7B6FD4C
:1015D00001210448FFF72DFD10BD0000000402406A
:1015E000F40000200008004000010020FFF7B4FBD9
:1015F000FFF718F801234022D1010B48FEF7A2FFA4
:10160000FFF752FFFFF7AEFFFFF728FEFEF7B6FF2A
:10161000FFF7B6FCFFF766FC05E0044801680448E4
:10162000006800F015F8F8E70018024024080040B0
:101630002C00002002468A4201DD10467047084611
:10164000FCE702468A4201DA104670470846FCE78A
:101650002DE9F04106460C464AF6AA20844207DAF4
:10166000214634480068FFF7E5FF3249086006E08C
:10167000214631480068FFF7E4FF2F4908602E48F3
:1016800000684FF6FF71081A2A4909684718642054
:1016900097FBF0F595B14AF6AA20844208DD4FF693
:1016A000FF70001B90FBF5F0C0F164002349086057
:1016B00094FBF5F0C0F16400204908601F480268FF
:1016C0001FA12248FEF7E6FD2048FEF767FE1FFA3D
:1016D00080F842461D491E48FEF776FF002E12DDB7
:1016E0004FF480411B48FFF78CF84FF480511948A4
:1016F000FFF789F811480068C0EBC00000EB40001C
:101700001549486313E0002E11DA4FF48051114857
:10171000FFF777F84FF480410E48FFF774F8074859
:101720000068C0EBC00000EB40000B494863BDE817
:10173000F0810000D4000020D80000205C000020D0
:101740004142433A2025640D0A0000000A010020AE
:101750000010014000000240000001404FF04070C6
:10176000E1EE100A70470006101600008C17000802
:1017700000000020E0000000E80100086C180008EC
:10178000E000002018070000040200080095BA0AD3
:101790000000000000000000010203040607080921
:1017A0000000000001020304010203040607080907
:1017B0000000000000000000000000000000000029
:1017C0000000000000000000000000000000000019
:1017D0000000000000000000000000000000000009
:1017E00000000000000000000000000000000000F9
:1017F0000000000048656C6C6F206E616D622062B5
:10180000616E6720746F2076696120555341525490
:1018100032207769746820545820444D410D0A00E5
:1018200000000000000000000000000000000000B8
:1018300000000000000000000000000000000000A8
:101840000000000000000000000000000000000098
:101850000000000000000000000000000000000088
:0C18600000000000FFFF0000000000007E
:04000005080001AD41
:00000001FF
