:020000040800F2
:100000009006002055020008B3060008AB06000861
:10001000AF0600083F05000821140008000000009A
:10002000000000000000000000000000090A0008B5
:10003000AB05000800000000410700082D0B000878
:100040006F0200086F0200086F0200086F020008CC
:100050006F0200086F0200086F0200086F020008BC
:100060006F0200086F0200086F0200086F020008AC
:100070006F0200086F0200086F0200086F0200089C
:100080006F0200086F0200086F0200086F0200088C
:100090006F0200086F0200086F0200086F0200087C
:1000A0006F0200086F0200086F0200086F0200086C
:1000B0006F0200081D0E0008650E00086F020008A0
:1000C0006F0200086F0200086F0200086F0200084C
:1000D0006F0200086F0200086F0200086F0200083C
:1000E0006F0200086F0200086F0200086F0200082C
:1000F0006F0200086F0200086F0200086F0200081C
:100100006F0200086F0200086F0200086F0200080B
:100110006F0200086F0200086F0200086F020008FB
:100120006F0200086F0200086F0200086F020008EB
:100130006F0200086F0200086F0200086F020008DB
:100140006F0200086F0200086F0200086F020008CB
:100150006F0200086F0200086F0200086F020008BB
:100160006F0200086F0200086F0200086F020008AB
:100170006F0200086F0200086F0200086F0200089B
:100180006F0200086F0200086F0200086F0200088B
:100190006F0200086F0200086F0200086F0200087B
:1001A0006F0200086F0200086F02000800F002F8FA
:1001B00000F041F80AA090E8000C82448344AAF1C0
:1001C0000107DA4501D100F036F8AFF2090EBAE8BE
:1001D0000F0013F0010F18BFFB1A43F0010318477B
:1001E000EC1400000C150000103A24BF78C878C148
:1001F000FAD8520724BF30C830C144BF04680C602D
:10020000704700000023002400250026103A28BF74
:1002100078C1FBD8520728BF30C148BF0B60704778
:10022000642900F07F80002070471FB501F048FA74
:100230001FBD10B510BD00F030F91146FFF7F5FFF6
:1002400001F0C0F900F04EF903B4FFF7F2FF03BC70
:1002500000F052F90948804709480047FEE7FEE7E9
:10026000FEE7FEE7FEE7FEE7FEE7FEE7FEE7FEE766
:1002700004480549054A064B70470000F10B000889
:10028000AD010008900000209006002090020020A0
:10029000900200200FB41CB5074B06AA7B446946A8
:1002A0000090059800F0DBF80020694600F0EAF8BD
:1002B0001CBC5DF814FB0000E50100002DE9F041D5
:1002C0000E460446002020622046E168884730B38D
:1002D000252805D0D4E901219047206A401CF2E787
:1002E000E168204600278847050018D0A5F14100A5
:1002F000192802D820354FF4006732462946204697
:100300002760FFF78DFF40B1012804D0F61D26F0CD
:1003100007060836D8E7361DD6E72846DAE7206A0A
:10032000BDE8F0812DE9F0410646002410687529EA
:10033000314616A510D0AFF30080002802DA404203
:1003400013A507E031688A0701D512A502E0490725
:1003500004D511A5012401E0AFF3008000210A2299
:1003600006F1240709E0B0FBF2FCB0FBF2F302FB5C
:100370001C00303078541846491C0028F3D123461D
:100380002A463046BDE8F04100F00BB800000000FE
:100390002D0000002B000000200000007047704777
:1003A00070472DE9F0470D4699469246044600F104
:1003B00024080168880604D5E06921F01001216055
:1003C00000E00120A84201DD471B00E00027A169F1
:1003D0007A1902EB0900081AA0612078C00602D43D
:1003E0002046AFF30080002608E0D4E901211AF886
:1003F00006009047206A401C761C20624E45F4DBC4
:100400002078C0060AD52046AFF3008006E0D4E984
:10041000012130209047206A401C2062381EA7F13D
:100420000107F4DC07E0D4E9012118F80500904742
:10043000206A401C2062281EA5F10105F3DC20463D
:10044000AFF300802078000602D50220BDE8F087D7
:100450000120FBE701694A1C02610878704700B57A
:100460008FB0CDE901310021059105497944CDE9ED
:10047000031011466846FFF721FF0FB000BD0000D2
:10048000E5FFFFFF0A6802F8010B0A6070470000F1
:10049000004870473000002070477546FFF7F8FFAE
:1004A000AE4605006946534620F00700854618B061
:1004B00020B5FFF7DDFEBDE820404FF000064FF00D
:1004C00000074FF000084FF0000B21F00701AC4689
:1004D000ACE8C009ACE8C009ACE8C009ACE8C009A8
:1004E0008D46704710B50446AFF300802046BDE846
:1004F0001040FFF7A9BE000001491820ABBEFEE77F
:10050000260002002DE9FC4107460C4615461E4612
:100510000121284600F016F90094F0B28DF804008D
:1005200000208DF8060001208DF8070002208DF8CC
:1005300005006946384600F049F8BDE8FC8100BF77
:10054000FEE738B500F02EF9012000F0FDF900F0CB
:100550003FFA0446012C23D1072002234FF4A8724E
:1005600008210090C80400F015FA012000F00CFAF0
:1005700000BF392000F0BCF90028FAD0052000F0B7
:100580001FF8002000F0D4F94FF4A05000F0E4F977
:100590004FF4805000F0ECF9022000F00DFA01E079
:1005A00000BFFEE700F0C4FA38BD7047014642F6CE
:1005B000E06201FB02F000E0401E0028FCD1704721
:1005C000014A107070470000003C0240F0B50A4636
:1005D00000210023002400BF3DE0012505FA01F3BE
:1005E000156805EA03049C4234D105684F000326D0
:1005F000BE40B543056015794E00B54006683543E9
:1006000005601579012D02D01579022D16D1856866
:100610004F000326BE40B543856055794E00B54076
:10062000866835438560456801268E40B543456040
:10063000456896798E40B6B235434560C5684F002F
:100640000326BE40B543C560D5794E00B540C668A7
:100650003543C560491C1029BFD3F0BDF0B5002358
:1006600000244D07ED0E02FA05F3CE1000F120052F
:1006700055F826504E07F70E0F26BE40B543CF1053
:1006800000F1200646F82750CE1000F1200555F85D
:10069000265045EA0304CE1000F1200545F8264017
:1006A000F0BD418370470183704700BFFEE700BF84
:1006B000FEE7704770B5002100230F22C4781CB3F9
:1006C000174C246804F4E064C4F5E064C4F3072123
:1006D000C1F10404E3B20A4144789C40E1B2847859
:1006E000144021430C07210E0E4C05786155047807
:1006F00004F01F050124AC4005786D11AD0005F133
:10070000E025C5F8004109E0047804F01F05012444
:10071000AC40054D0678761145F8264070BD0000C6
:100720000CED00E000E400E080E100E0024901435C
:10073000024A1160704700000000FA050CED00E06D
:100740007047000029B1064A12680243044B1A6040
:1007500004E0034A12688243014B1A6070470000AC
:100760003038024029B1064A12680243044B1A602D
:1007700004E0034A12688243014B1A60704700008C
:100780004038024029B1064A12680243044B1A60FD
:1007900004E0034A12688243014B1A60704700006C
:1007A000443802401448006840F0010012490860D3
:1007B00000201149083108600F4800680F490840BF
:1007C0000D4908600E48091D08600E480A49843129
:1007D00008600B481038091D08600748006820F4BD
:1007E000802005490860002003490C310860024957
:1007F0008C3108607047000000380240FFFFF6EAC5
:100800001030002400300020F0B500210022002428
:10081000022500260223324F3F6807F00C0121B168
:10082000042905D0082937D105E02E4F076036E0AE
:100830002D4F076033E02A4F3F1F3F68C7F38056B4
:10084000274F3F1F3F6807F03F036EB1264FB7FBAE
:10085000F3F7DFF88CC0ACF1040CDCF800C0CCF38B
:10086000881C07FB0CF40CE01E4FB7FBF3F7DFF816
:1008700070C0ACF1040CDCF800C0CCF3881C07FBA2
:100880000CF4174F3F1F3F68C7F301477F1C7D00E3
:10089000B4FBF5F7076002E0124F076000BF00BF2E
:1008A0000F4F3F6807F0F0010909104F7A5C0768A5
:1008B000D74047600A4F3F6807F4E051890A0B4F61
:1008C0007A5C4768D7408760054F3F6807F460410E
:1008D000490B064F7A5C4768D740C760F0BD0000FF
:1008E000083802400024F40000127A0014000020AE
:1008F00010B501460022002300204A11012A02D12E
:100900000A4C236808E0022A03D1084C703423689B
:1009100002E0064C7434236801F01F020124944065
:100920001C400CB1012000E0002010BD0038024046
:1009300001460020034A106820F0F00008431060D0
:1009400070470000083802400021024A1170114629
:10095000087070470238024001460020034A1068C0
:1009600020F4E0500843106070470000083802404F
:1009700001460020034A106820F4604040EAC100AC
:10098000106070470838024001490866704700004F
:100990000000474270B5049C41EA82150126C6EB6F
:1009A000530645EA0645054345EA0465014E3560B0
:1009B00070BD00000438024001460020034A106860
:1009C00020F0030008431060704700000838024020
:1009D00038B5002000900024002500BF3120FFF72B
:1009E00087FF05460098401C00900098B0F5A04F86
:1009F00001D0002DF2D03120FFF77AFF08B1012499
:100A000000E00024204638BD704700000CB50020EF
:100A1000019000904148006840F480303F490860F0
:100A200000BF3E48006800F4003000900198401C70
:100A30000190009818B90198B0F5A04FF1D137484E
:100A4000006800F4003010B10120009001E00020A7
:100A500000900098012860D130484030006840F094
:100A600080502E49403108602D48006840F44040D5
:100A70002B49086029480830006828490831086077
:100A80000846006840F4004008600846006840F4EA
:100A9000A05008602348091F0860081F006840F044
:100AA0008070091F086000BF1C48006800F00070DB
:100AB0000028F9D01A48006840F4803018490860CE
:100AC00000BF1748406800F480300028F9D014486F
:100AD000006840F400301249086000BF10484068C8
:100AE00000F400300028F9D040F205700E4908608B
:100AF0000A480830006820F00300084908310860FF
:100B00000846006840F00200086000BF0348083053
:100B1000006800F00C000828F8D10CBD0038024035
:100B200000700040195A4007003C02407047000026
:100B300070B500200022022300240221274D2D68D9
:100B400005F00C0020B1042806D0082834D107E0B5
:100B5000234D244E356033E0234D224E35602FE087
:100B60001E4D2D1F2D68C5F380541C4D2D1F2D6863
:100B700005F03F0154B11C4DB5FBF1F5174E361F82
:100B80003668C6F3881605FB06F209E0144DB5FB7E
:100B9000F1F5124E361F3668C6F3881605FB06F2CD
:100BA0000E4D2D1F2D68C5F301456D1C6B00B2FB6A
:100BB000F3F50C4E356003E0094D0A4E356000BF79
:100BC00000BF064D2D68C5F30315084E705D054D39
:100BD0002D68C540034E356070BD000008380240E6
:100BE0000024F4000000002000127A00040000201D
:100BF00010B51548006840F47000134908601348A8
:100C0000006840F001001149086000200F490831D8
:100C100008600E4800680E4908400C4908600D48FD
:100C2000091D0860081F006820F48020091F086063
:100C3000002006490C310860FFF7E8FE4FF0006025
:100C400001498039086010BD88ED00E0003802409D
:100C5000FFFFF6FE10300024F0B50C4615460021CB
:100C60000022068C4FF6FE773E400684018B028CF4
:100C70004FF60C7631407E1C06EA03162E433143B4
:100C80004FF6F576324044F0010632430183028488
:100C9000F0BDF0B50C461546002100220026078C59
:100CA0004FF6EF7C07EA0C070784018B028C4FF6A6
:100CB000FF7707EA041640F6FF4739404FF6FF7703
:100CC00007EA033739434FF6FF7707EA0527394329
:100CD0004FF65F773A4046F010073A4301830284AB
:100CE000F0BDF0B50C461546002100220026078C09
:100CF0004FF6FF6C07EA0C070784818B028C4FF6D6
:100D0000FF7707EA04264FF60C7739404FF6FF7756
:100D100007EA03172F4339434FF2FF573A4046F48F
:100D200080773A4381830284F0BDF0B50C461546C6
:100D3000002100220026078C4EF6FF7C07EA0C07F4
:100D40000784818B028C4FF6FF7707EA043640F662
:100D5000FF4739404FF6FF7707EA052739434FF63B
:100D6000FF7707EA0337394345F6FF773A4046F401
:100D700080573A4381830284F0BD000001B588B0FA
:100D80006020ADF80C000120ADF80E000020ADF899
:100D90001800089805900020ADF81C0003A91D4814
:100DA00000F018F908211B4800F052F960220021D8
:100DB000184800F056F901220021164800F082F888
:100DC0000121144800F072F801210846FFF7BAFC2F
:100DD0004FF4A040019001208DF8080000208DF80C
:100DE0000A008DF80B0002208DF8090001A90A48BD
:100DF000FFF7ECFB4FF480510748FFF752FC6420EB
:100E0000FFF7D4FB4FF480410348FFF74CFC09B0D7
:100E100000BD0000000001400000024010B50121AB
:100E20000E4800F08EF8012817D10C48008800F019
:100E3000100038B10A480068A0F57F40FF38084923
:100E4000086006E0064800684FF6FF710844044950
:100E500008600121014800F044F810BD0004004082
:100E60002400002010B501210E4800F06AF8012886
:100E700017D10C48008800F0100038B10A4800680B
:100E8000A0F57F40FF380849086006E00648006882
:100E90004FF6FF710844044908600121014800F041
:100EA00020F810BD000800402400002021B1028875
:100EB00042F08002028004E002884FF67F731A40FD
:100EC0000280704730B5002301248C40A3B2048C0B
:100ED0009C430484048C02FA01F5ADB22C430484D3
:100EE00030BDCA430282704721B1028842F001023C
:100EF000028004E002884FF6FE731A4002807047B9
:100F0000F0B50C4615461E4600210022002301893B
:100F1000028B038C4FF6F877394021434FF6FC479C
:100F20003A4040F201173A434FF6DD773B404FF627
:100F3000FF7707EA06172F433B43018102830384AF
:100F4000F0BD02460020138A0B400BB1012000E0E7
:100F50000020704770B505460C46208850B923899B
:100F6000A28861882846FFF777FEE188284600F0CE
:100F7000A5F825E0208804280AD12389A288618861
:100F80002846FFF786FEE188284600F0A0F817E023
:100F9000208808280AD12389A28861882846FFF77B
:100FA000A0FEE188284600F09FF809E02389A28886
:100FB00061882846FFF7B9FEE188284600F09DF8D1
:100FC00070BD1AB183890B43838102E083898B430F
:100FD0008381704770B5002400220023058C4FF6F2
:100FE000FE7635400584028C8388048B4FF68F751E
:100FF0002C40B51E2C400D882C43751E2A408D892F
:101000002A434D882A43104DA84202D00F4DA842D2
:1010100013D14FF6F7752A40CD892A434FF6FB7559
:101020002A408D882A434FF6FF652B404FF6FF5527
:101030002B400D8A2B434D8A2B43838004838D687C
:101040004563028470BD00000000014000040140BF
:101050000A460021018B4FF6F773194011430183B3
:10106000704770B50346002000241846183001254B
:101070008D40ACB21D8CA5431D8409B108290AD14D
:1010800000EB610005684FF68F7635400560056816
:10109000154305600FE00D1FC5F34E052844056894
:1010A00048F6FF763540056005684FF6FF7606EA9C
:1010B00002263543056070BD41627047028B4FF6D2
:1010C000F3731A400283028B0A4302837047028B38
:1010D0004FF2FF331A400283028B4FF6FF7303EA8D
:1010E00001231A4302837047828B4FF6F3731A4031
:1010F0008283828B0A4382837047828B4FF2FF3355
:101100001A408283828B4FF6FF7303EA01231A434E
:101110008283704700220288184B98420ED0184BE9
:1011200098420BD0B0F1804F08D0164B984205D0B2
:10113000154B984202D0154B984204D14FF68F734D
:101140001A404B881A43124B984207D0114B9842D1
:1011500004D04FF6FF431A400B891A4302804B68B4
:10116000C3620B880385054B984202D0044B98421A
:1011700001D18B7A038601238382704700000140EE
:10118000000401400004004000080040000C004042
:10119000001000400014004010B501211020FFF79E
:1011A000F1FA01210846FFF7CDFA0722092110487C
:1011B000FFF754FA07220A210D48FFF74FFA4FF4C0
:1011C000806251100A4800F0FEF80A4800F029F841
:1011D0002521084800F00EF9012240F2255105486A
:1011E00000F043F80121034800F00FF810BD0000A3
:1011F000000002400010014001F40072B2F5007FCF
:1012000000D100BFCA430280704721B1828942F4F5
:101210000052828104E082894DF6FF731A40828178
:1012200070471FB504464FF4165000900020ADF8EB
:101230000C000C20ADF80A000020ADF80800ADF855
:101240000600ADF804006946204600F033F81FBDE3
:1012500002460020B1F5007F00D100BF13880B408B
:101260000BB1012000E000207047F0B503460024D8
:1012700000260025002040F66A17B94200D100BFC1
:101280001846C1F3421401F01F06012707FA06F5BC
:10129000012C01D10C3004E0022C01D1103000E00F
:1012A00014301AB107682F43076002E00768AF43A4
:1012B0000760F0BD2DE9FF4705460E460024A14614
:1012C00000BFA046B08900B100BF2C8A24F440546E
:1012D000F08804432C82AC8941F20C608443B088CE
:1012E00031890843718908430443AC81AC8A24F4F2
:1012F0004074B0890443AC826846FFF785FA204801
:10130000854202D01F48854202D1DDF80C9001E0F1
:10131000DDF80890A88900F4004040B109EBC9004D
:1013200000EB091031684900B0FBF1F707E009EB69
:10133000C90000EB091031688900B0FBF1F76420A7
:10134000B7FBF0F004012009642101FB1078A889A3
:1013500000F4004040B1322000EBC800B0FBF1F0D7
:1013600000F00700044308E0322000EB081064217D
:10137000B0FBF1F000F00F0004432C81BDE8FF87C3
:10138000001001400014014010B5044600BF802148
:101390000448FFF75DFF0028F9D02146014800F01E
:1013A0000EF810BD0010014010B5044603E014F81B
:1013B000010BFFF7E9FF20780028F8D110BDC1F339
:1013C0000802828070477CB506460C46154644EA02
:1013D0000500009002208DF804008DF80500002023
:1013E0008DF8060001208DF8070069463046FFF7AA
:1013F000EDF87CBD38B505460C4640F2255128462F
:10140000FFF7FAFE8DF8004001208DF80300002060
:101410008DF801008DF802006846FFF74BF938BDE2
:1014200000BFFEE700B587B001210220FFF79AF95F
:1014300002230122C0212C48FFF764F80222062172
:101440002948FFF70BF9022207212748FFF706F981
:101450000020ADF804004FF6FF7002900020ADF8B8
:101460000600ADF80C0001A92048FFF753FE042048
:10147000ADF810000020ADF81200ADF81800012002
:10148000ADF8140004A91948FFF764FD00231A46BB
:1014900003211648FFF734FD00211448FFF70CFE26
:1014A00001211248FFF71DFD012211460F48FFF7E9
:1014B00088FD4FF4A060FFF739F91D208DF800007A
:1014C00000208DF801008DF8020001208DF8030046
:1014D0006846FFF7EFF8002005490860012103483E
:1014E000FFF702FD07B000BD00000240000400400D
:1014F0002C00002000B587B001210420FFF732F94D
:1015000002231A46C0212C48FEF7FCFF02220621C6
:101510002948FFF7A3F8022207212748FFF79EF882
:101520000020ADF804004FF6FF7002900020ADF8E7
:101530000600ADF80C0001A92048FFF7EBFD0420E0
:10154000ADF810000020ADF81200ADF81800012031
:10155000ADF8140004A91948FFF7FCFC00231A4653
:1015600003211648FFF7CCFC00211448FFF7A4FD27
:1015700001211248FFF7B5FC012211460F48FFF781
:1015800020FD4FF4A060FFF7D1F81D208DF800007A
:1015900000208DF801008DF8020001208DF8030075
:1015A0006846FFF787F800200549086001210348D5
:1015B000FFF79AFC07B000BD00040240000800409D
:1015C0002C0000209AB0FEF7BCFFFFF72BFFFFF7BF
:1015D00091FFFFF7E1FD40F6B730FFF7CFFB51E099
:1015E000294800682949086008460068B0F5004F9E
:1015F00006DB08460068A0F57F40FF3808600BE076
:101600002248006810F5004F06DC204800684FF6BD
:10161000FF7108441D4908601C4802681CA10DA800
:10162000FEF738FE0DA8FFF7BFFE4FF47A70FEF705
:10163000BDFF1C4800681C49086008460068B0F5FA
:10164000004F06DB08460068A0F57F40FF380860C1
:101650000BE00E48006810F5004F06DC12480068E9
:101660004FF6FF710844104908600F4802680FA147
:101670006846FEF70FFE6846FFF796FE4FF47A7055
:10168000FEF794FFACE70000240400402400002093
:10169000636F756E745F74656D70313A2025640DEB
:1016A0000A0000002408004028000020636F756EC7
:1016B000745F74656D70323A2025640D0A00000075
:1016C0004FF04070E1EE100A70470000EC16000881
:1016D0000000002030000000E80100081C1700088E
:1016E0003000002060060000040200080095BA0ADD
:1016F00000000000000000000102030406070809C2
:1017000000000000010203040102030406070809A7
:0C171000000000000000000000000000CD
:04000005080001AD41
:00000001FF
