:020000040800F2
:10000000A8070020650200086B15000863150008AA
:100010006715000879130008B326000800000000E7
:10002000000000000000000000000000751B000838
:100030007714000800000000AD180008991C0008A3
:100040007F0200087F0200087F0200087F0200088C
:100050007F0200087F0200087F0200087F0200087C
:100060007F0200087F0200087F0200087F0200086C
:100070007F0200087F0200087F0200087F0200085C
:100080007F0200087F0200087F0200087F0200084C
:100090007F0200087F0200087F0200087F0200083C
:1000A0007F0200087F0200087F0200087F0200082C
:1000B0007D1F00087F0200087F0200087F02000801
:1000C0007F0200087F0200087F0200087F0200080C
:1000D0007F0200087F0200087F0200087F020008FC
:1000E0007F0200087F0200087F0200087F020008EC
:1000F0007F0200087F0200087F0200087F020008DC
:100100007F0200087F0200087F0200087F020008CB
:100110007F0200087F0200087F0200087F020008BB
:100120007F0200087F0200087F0200087F020008AB
:100130007F0200087F0200087F0200087F0200089B
:100140007F0200087F0200087F0200087F0200088B
:100150007F0200087F0200087F0200087F0200087B
:100160007F0200087F0200087F0200087F0200086B
:100170007F0200087F0200087F0200087F0200085B
:100180007F0200087F0200087F0200087F0200084B
:100190007F0200087F0200087F0200087F0200083B
:1001A0007F0200087F0200087F02000800F002F8CA
:1001B00000F049F80AA090E8000C82448344AAF1B8
:1001C0000107DA4501D100F03EF8AFF2090EBAE8B6
:1001D0000F0013F0010F18BFFB1A43F0010318477B
:1001E000B82E0000D82E0000103A24BF78C878C17D
:1001F000FAD8520724BF30C830C144BF04680C602D
:10020000704700000023002400250026103A28BF74
:1002100078C1FBD8520728BF30C148BF0B60704778
:10022000662902F0EA86002070471FB502F0DBFE67
:1002300000F0FAFA04000020002102F067FBE06001
:100240001FBD10B510BD00F0ECFB1146FFF7EDFF30
:1002500002F0DAFA00F00AFC03B4FFF7F2FF03BC85
:1002600000F04EFC0948804709480047FEE7FEE7DA
:10027000FEE7FEE7FEE7FEE7FEE7FEE7FEE7FEE756
:1002800004480549054A064B704700005D1D0008FB
:10029000AD010008A8010020A8070020A803002045
:1002A000A80300200FB41CB5074B06AA7B4469467F
:1002B0000090059800F09BFA0020694600F0AAFA29
:1002C0001CBC5DF814FB0000650500002DE9F04141
:1002D0000E460446002020622046E168884730B37D
:1002E000252805D0D4E901219047206A401CF2E777
:1002F000E168204600278847050018D0A5F1410095
:10030000192802D820354FF4006732462946204686
:100310002760FFF785FF40B1012804D0F61D26F0C5
:1003200007060836D8E7361DD6E72846DAE7206AFA
:10033000BDE8F08110B5431C02E010F8011B71B15B
:100340008107FAD14FF0013202C88C1A8C4314EAAB
:10035000C211F9D0C01A0A0603D0C01E10BDC01ABF
:1003600010BD0A0401D0801E10BD0902FCD0401E41
:1003700010BD4FF0000200B5134694469646203952
:1003800022BFA0E80C50A0E80C50B1F12001BFF44E
:10039000F7AF090728BFA0E80C5048BF0CC05DF8B4
:1003A00004EB890028BF40F8042B08BF704748BF02
:1003B00020F8022B11F0804F18BF00F8012B704776
:1003C00070477047704770472DE9FF4F0C461E4637
:1003D0004FF0FF378BB0D2E90001DDF860800A9062
:1003E0008A46C1F30A5505B93D46002108464FF03B
:1003F0000000BAF1000F00F4400005DA00EB8000C5
:100400004FF4400101EA50004FEA9059B9F1010F51
:1004100000DDB9460A9850EA4A000ED044F6105062
:10042000A5F2FF3545432F14B8F1000F1ED07542D9
:10043000291E1EDDC9F100021CE0B8F1010F4FF0CA
:10044000000001D0302103E0F24305E02154401CBC
:10045000B042FBDB30460022002121540B99C1F849
:100460000880C1E900200FB0BDE8F08FBD1B6D1CF6
:10047000DEE74A4600DA694206A800F05FFA06ABFA
:1004800093E8070003AB83E8070050460A9900F0A1
:100490003DFB8DE80700A0F500501F380090039841
:1004A000002D0ADD42F21F014A460844002303A939
:1004B0000390684600F0A6FD09E0A0F500504A460A
:1004C0001F38002303A90390684600F0B0FD8DE8B3
:1004D00007000004000C03D04FF0FF30410800E09B
:1004E0001046B8F1000F03D00022009215461EE01E
:1004F000751E05D400F09CF9303262556D1EF9D599
:10050000B3460122084302D000227F1C04E0207879
:10051000302801D100227F1E002A099784D01DE0D7
:10052000112D07DA00F084F9303262556D1C50EA63
:100530000102F5D1084302D00098C8B10EE00021B5
:10054000681E05E0235C625C63542254401E491C13
:100550008142F7DBAB46A81B401E0990002004F83F
:100560000B000B98099AC0F80880C0E9002B7AE7C5
:1005700011264FF0000857E72DE9F04F8846044652
:10058000D21D22F0070191B0D1E90001CDE90A01A5
:1005900002F091F802460B98C00F01D02D2007E021
:1005A0002068810701D52B2002E0202101EAC0004C
:1005B000032A099001D0072A05DB0346414620465D
:1005C00000F07CF90BE12078800601D5E06900E0BD
:1005D0000620B8F1650F814606D0B8F1660F18D035
:1005E000B8F1670F70D131E00020B9F1110F009020
:1005F00001DB112301E009F101030AAA01A90CA8FA
:10060000FFF7E2FEDDE90C70002609F101058346E3
:1006100047E001204B4600904FF000470AAA01A98D
:100620000CA8FFF7D1FEDDE90DB00C995D46002660
:1006300010B909F101000D18B9EB050003D4C0F1A0
:10064000FF3609F10105A5EB09002BE0B9F1010F17
:1006500001DA4FF001090020B9F1110F009048466E
:1006600001DD112300E003460AAA01A90CA8FFF747
:10067000ABFEDDE90C704D4600268346207800076E
:100680000AD4AB4500DA5D4601A8012D04DD41190D
:1006900011F8011C302907D04F4502DA17F1040F79
:1006A00004DA012082460FE06D1EEEE7002F02DC27
:1006B000ED1B3E4403E0781CA84200DD7D1CB81B06
:1006C00000F1010A4FF000472078000703D4AA4543
:1006D00001DB4FF0FF3A0021B7F1004F0DF1430865
:1006E0008DF8431024D002202B23002F01DA7F4203
:1006F0002D230A21021EA0F1010000DC5FB197FB4F
:10070000F1FC97FBF1F201FB1C7C17460CF1300C5D
:1007100008F801CDEEE7A8F1010003702188090572
:1007200001D5452100E06521A0F1010800F8011C78
:1007300009980FA9A1EB0807FF1D00B1012041197D
:1007400001EBEA70A1693844081A401EA0612078C4
:10075000C00602D42046AFF30080099828B1D4E93E
:1007600001219047206A401C20622078C00622D5D3
:100770002046AFF300801EE0002E04DBB34502DD0F
:1007800001A8805D00E03020D4E901219047206A73
:10079000401C2062761CAAF101005FEA000A0AD11F
:1007A00000F042F8C0680168405CD4E9012190473C
:1007B000206A401C2062281EA5F10105DCDC07E050
:1007C000D4E9012118F8010B9047206A401C2062EF
:1007D000381EA7F10107F3DC2046AFF300800320A9
:1007E00011B041E601694A1C02610878704700B502
:1007F0008FB0CDE901310021059105497944CDE95A
:10080000031011466846FFF761FD0FB000BD000000
:10081000E5FFFFFF0A6802F8010B0A60704700005D
:1008200000487047440100200048704764010020E0
:1008300030B5B0F10A024FEA900E71F100034EEAB2
:10084000817EB0EB0E0061EB91014FEA101E4EEA83
:10085000017E10EB0E0041EB11114FEA102E4EEA13
:10086000016E10EB0E0041EB11214FEA104E4EEAE3
:10087000014E10EB0E0041EB1141401841F1000117
:100880004FEAD00040EA41704FEAD10110EB8005F9
:100890004FEA810444EA907444EB01046D1944EB7F
:1008A0000404521BA3414FF0000348BF0A3200D595
:1008B00030BD401C41F1000130BD00002DE9F04188
:1008C0001F46044603260168072A01F4006004DB82
:1008D00008B116A505E016A503E008B115A500E0CE
:1008E00015A521F010002060A069C01EA0610FB105
:1008F000401EA0612046AFF300804FB1D4E9012132
:1009000038469047206A401C2062C01C206206E0E6
:10091000206AFAE7D4E9012115F8010B9047761E09
:10092000F8D22046AFF30080BDE8F0814E414E0082
:100930006E616E00494E4600696E66002DE9F04713
:10094000814616468AB0354878440DC88DE80D00BA
:1009500032487844801C03AC0DC884E80D0041F691
:100960009B300844372190FBF1F290FBF1F5A5F1A3
:10097000800501FB12041B3C02D56442012000E00B
:100980000020DFF898A080460027FA44AAF1BE0AAA
:100990000EE0E0070AD03246684607EB4701012324
:1009A0000AEB810100F043FB8DE8070064107F1C17
:1009B000002CEED1194F7F44AE3F19E0E80715D067
:1009C00007EB04100DF1180A90E80E008AE80E00FB
:1009D000C068F04201D1981908903246012306A957
:1009E00003A800F024FB03AB83E807006D10641C30
:1009F000002DE3D14FF0010332466946B8F1000FF4
:100A000003A802D000F0FEFA01E000F010FBC9E9F3
:100A10000001C9F808200AB0BDE8F08734270000BB
:100A200070477546FFF7FCFEAE4605006946534623
:100A300020F00700854618B020B5FFF721FCBDE87F
:100A400020404FF000064FF000074FF000084FF035
:100A5000000B21F00701AC46ACE8C009ACE8C009C6
:100A6000ACE8C009ACE8C0098D46704710B5044633
:100A7000AFF300802046BDE81040FFF7EDBB00005B
:100A80004FF0013C50F8042B51F8043B9A4221D11D
:100A9000A2EB0C03934313EACC1317D150F8042BA9
:100AA00051F8043B9A4215D1A2EB0C03934313EA8D
:100AB000CC130BD150F8042B51F8043B9A4209D1C6
:100AC000A2EB0C03934313EACC13DBD04FF00000EE
:100AD000704700BFD01A01BAB1FA81F101F01801D4
:100AE00022FA01F0CB40C1F12001DBB2C0B2C01A42
:100AF0002CFA01F3D11A914311EAC311E6D17047E0
:100B000001491820ABBEFEE7260002005FEA400C58
:100B100008BF91F0000F4FEA8C234FEAC12243EA4D
:100B200051514FEA1C5018BF00F5F0404FEA300019
:100B300018BF41F000415FEA6C5C00F02980BCF115
:100B4000FF3F08BF40F080407047130C06BF1204FF
:100B50004FF0100C4FF0000C130E04BF12020CF1FA
:100B6000080C130F04BF12010CF1040C930F04BF07
:100B700092000CF1020CD30F04BF52000CF1010CD7
:100B800011464FF00002A0F11F00A0EB0C007047CF
:100B900011F0004F08BF704731F000413FF4D5AF6E
:100BA0000B0C06BF09044FF0100C4FF0000C0B0E9D
:100BB00004BF09020CF1080C0B0F04BF09010CF172
:100BC000040C8B0F04BF89000CF1020CCB0F04BF87
:100BD00049000CF1010CCCF12003A0EB0C0022FA2F
:100BE00003F302FA0CF241EA030100F1010070473D
:100BF00020F07F4C80EA030023F07F47ACEB070333
:100C000003F57C5300F0004003F1FF032DE9804918
:100C10004FEA154B09B44FEA144325EA0B4E24EA78
:100C200003480FF2042606EB132749083E785FEAD3
:100C3000320203FB0667C7F5000707FB06F64FEA1B
:100C400054374FEAD64606F1020607FB066CCCF194
:100C5000005C4FEA1C472CEA074C07FB06F40CFB30
:100C600006F504EB15464FEA961634BF00204FF008
:100C700000404FEAD13706FB07FC4FEA1C4C0CFB47
:100C80000BF7D21B03FB0CF761EB07010CFB0EF714
:100C9000B0EB074072EB17420CFB08F734BFA2EB36
:100CA0000742B2EB074261EB17414FEA0C444FEAAF
:100CB000910706FB07FC4FEA1C4C0CFB0BF7B0EB53
:100CC000C74072EB573203FB0CF734BFA2EBC742AD
:100CD000B2EBC74261EB57310CFB0EF7B0EBC7002C
:100CE00072EB57720CFB08F734BFA2EBC702B2EBF2
:100CF000C70261EB5771039F4FEA816141EA92118C
:100D000004EBCC044FEAD1374FEA826206FB07FCC2
:100D100042EA90124FEA80604FEA1C4C0CFB0BF742
:100D2000D21B03FB0CF761EB07010CFB0EF7B0EBDA
:100D3000074072EB17420CFB08F734BFA2EB0742E7
:100D4000B2EB074261EB17414FEA8C554FEA91072E
:100D500004EB9C2406FB07FC4FEA1C4C0CFB0BF736
:100D6000B0EBC74072EB573203FB0CF734BFA2EB7A
:100D7000C742B2EBC74261EB57310CFB0EF7B0EB49
:100D8000C70072EB57720CFB08F734BFA2EBC70227
:100D9000B2EBC70261EB577115EB4C254FEA81614D
:100DA00041EA92114FEA82624FEAD13742EA901249
:100DB00006FB07FC44F100044FEA80604FEA1C4C3C
:100DC0000CFB0BF7D21B03FB0CF761EB07010CFBD1
:100DD0000EF7B0EB074072EB17420CFB08F734BF7D
:100DE000A2EB0742B2EB074261EB174115EB1C1572
:100DF0004FEA813141EA92414FEA823242EA90421F
:100E00004FEA80304FEA0C7644F1000448EA03438D
:100E10004EEA0B484FF0000EB2EB080C71EB0307E3
:100E200024BF624639464EEB0E0E4FF0000B001801
:100E3000524149414BEB0B0BB2EB080C71EB030732
:100E40007BF1000B24BF624639464EEB0E0E4FF08D
:100E5000000B0018524149414BEB0B0BB2EB080C55
:100E600071EB03077BF1000B24BF624639464EEB62
:100E70000E0E51EA020718BF46F0010616EB0E7679
:100E800055F1000254F1000103D5BDE88901BDE828
:100E90000088BDE88901BDE80048B619524141EB20
:100EA0000101A3F10103704780807F7E7D7C7B7A06
:100EB0007978777676757473727171706F6E6E6D06
:100EC0006C6C6B6A6A6968686766666564646363AC
:100ED00062616160605F5F5E5E5D5D5C5C5B5B5A32
:100EE0005A5959585857575656555555545453539F
:100EF00052525251515050504F4F4F4E4E4D4D4DFA
:100F00004C4C4C4B4B4B4A4A4A4949494848484744
:100F10004747474646464545454444444443434382
:100F20004342424242414141002B9C4630D477002B
:100F30002BD01CB54FEA370703B44FF010004FF029
:100F40001001BAF1000F06D0BCF1000FDCBF40F079
:100F5000080040F008014FF000000FBCBDE8104051
:100F60000BF1010BBBF1010F08BF5FEA170722BFAE
:100F700012F1010211F101014FF0004143F10003B0
:100F800000F0004043EA00007047F9D35708D0E76B
:100F900046EA064613F1400F4FEA16461FDD13F1ED
:100FA000200FDFBF16430A46002120335B42BED02C
:100FB000C3F1200746EA064602FA07F74FEA16464B
:100FC00046EA0706C3F1200722FA03F201FA07F7FF
:100FD00021FA03F14FF0000342EA0702A7E746EACD
:100FE000020646EA06464FEA164646EA0106BCBF36
:100FF00046EA0646360C4FF000034FF000024FF071
:10100000000194E72DE9804C9A46934670B491E82C
:10101000380007C831EA400C48BF34EA430C03D516
:10102000FFF7E6FDFFF780FFF0BCBDE8008C2DE97F
:10103000804C9A46934670B491E8380007C810F087
:10104000804F08BF13F0804F03D100F005F8FFF781
:101050006BFFF0BCBDE8008C20F07F4780EA030006
:1010600023F07F4C07EB0C03A3F57C5300F000400A
:10107000A3F1FE0392F0000F00F0B38095F0000F93
:1010800000F077802DE901494FEA11404FEA1446FC
:1010900021EA004800FB06FC24EA064708FB06F6A6
:1010A00007FB08F800FB07F718EB06484CEB164C5B
:1010B0004FEA124B18EB07484FEA15464CEB174026
:1010C00022EA0B4E0BFB06FC25EA06470EFB06F652
:1010D00007FB0EFE0BFB07F71EEB064E4CEB164C08
:1010E0004FF000061EEB074E4CEB174B18EB0B08AE
:1010F00040F1000018EB0E0B58EB000840F1000027
:101100008F1A4FF000013CBFC943661B14BFB5EBFB
:10111000040C00213CBFC943F61B4FEA17444EEABA
:101120008E0E27EA04454FEA1C4704FB07622CEAAF
:10113000074C05FB07F70CFB05F604FB0CFC16EB54
:10114000074642EB174216EB0C4642EB1C421BEBE8
:10115000060658EB0202414146EA9E0601D5BDE86B
:101160000189B619524141EB0101A3F10103BDE828
:1011700001894FEA14454FEA114724EA054621EA5E
:10118000074C05FB07F406FB07F70CFB06F105FB14
:101190000CFC11EB074144EB17444FEA124711EBEB
:1011A0000C4144EB1C4422EA074C05FB07F206FB0A
:1011B00007F70CFB06F605FB0CFC16EB074642EBAB
:1011C000174216EB0C4642EB1C456A1854F100011D
:1011D00048BF7047B619524141EB0101A3F1010329
:1011E000704795F0000F37D04FEA11424FEA14478D
:1011F00021EA024624EA074C02FB07F106FB07F747
:101200000CFB06F402FB0CFC14EB074441EB17410A
:101210004FEA154714EB0C4441EB1C4125EA074CFF
:1012200002FB07F506FB07F70CFB06F602FB0CFCBE
:1012300016EB074645EB174516EB0C4645EB1C42F3
:10124000121951F1000148BF7047B619524141EBE4
:101250000101A3F1010370474FEA14454FEA11471A
:1012600024EA054621EA074C05FB07F106FB07F7D0
:101270000CFB06F24FF0000605FB0CFC12EB0742DC
:1012800041EB174112EB0C4251EB1C4148BF704738
:10129000921841EB0101A3F1010370472DE9FC41D4
:1012A00007460C4615461E460121284600F000FB65
:1012B00000948DF8046000208DF8060001208DF860
:1012C000070002208DF805006946384600F0DAF87C
:1012D000BDE8FC8110B51048006840F480000E495C
:1012E00008600E4800F0B6F840200C49C8600020A5
:1012F00048614FF48060886100200862C8614862DC
:101300004FF4803088620020C86203200863002008
:101310004863886310BD0000303802400801002097
:1013200070B506460C4615461148006808B1002005
:1013300070BD10480561301D0E4948600846846044
:101340004FF0006008600A48001F01F087F8094963
:101350000748001F00F052F801210548001F00F067
:1013600041F801228021304601F0DDF80120DFE75D
:10137000BC6402400801002000BFFEE738B500F061
:10138000C7FA012000F096FB00F0D8FB0446012CC0
:1013900023D1072002234FF4A87208210090C8042B
:1013A00000F0AEFB012000F0A5FB00BF392000F0EB
:1013B00055FB0028FAD0052000F05EF8002000F070
:1013C0006DFB4FF4A05000F07DFB4FF4805000F017
:1013D00085FB022000F0A6FB01E000BFFEE700F065
:1013E0005DFC38BD21B1026842F00102026003E0F9
:1013F000026822F0010202607047000010B500226E
:101400000268134B1A40CC680B6823434C69234392
:101410008C692343CC6923430C6A23434C6A2343DE
:101420008C6A23434C6B23438C6B23431A43026027
:10143000426922F00702D1E90B3423431A43426187
:101440000B6943604B6883608B68C36010BD00000C
:101450003F801CF00021016041608160C16001613A
:1014600041618161C161016241628162C162016366
:101470004163816370477047014A107070470000F4
:10148000003C0240F0B50A4600210023002400BFC2
:101490003DE0012505FA01F3156805EA03049C42C5
:1014A00034D105684F000326BE40B5430560157969
:1014B0004E00B5400668354305601579012D02D010
:1014C0001579022D16D185684F000326BE40B5431D
:1014D000856055794E00B54086683543856045681E
:1014E00001268E40B5434560456896798E40B6B278
:1014F00035434560C5684F000326BE40B543C5600F
:10150000D5794E00B540C6683543C560491C1029E1
:10151000BFD3F0BDF0B5002300244D07ED0E02FA55
:1015200005F3CE1000F1200555F826504E07F70EB2
:101530000F26BE40B543CF1000F1200646F82750D5
:10154000CE1000F1200555F8265045EA0304CE10D0
:1015500000F1200545F82640F0BD41837047018326
:10156000704700BFFEE700BFFEE7704770B500217F
:1015700000230F22C4781CB3174C246804F4E064E1
:10158000C4F5E064C4F30721C1F10404E3B20A41E5
:1015900044789C40E1B28478144021430C07210E2A
:1015A0000E4C05786155047804F01F050124AC4009
:1015B00005786D11AD0005F1E025C5F8004109E0A1
:1015C000047804F01F050124AC40054D067876111F
:1015D00045F8264070BD00000CED00E000E400E09E
:1015E00080E100E002490143024A116070470000B7
:1015F0000000FA050CED00E0014691F8390008B949
:101600000020704791ED0D1AD1ED001A31EE610AFC
:1016100091ED091AD1ED071A01EE801A81ED091A30
:1016200091ED091AD1ED0B1AB4EEE11AF1EE10FAB0
:1016300002D291ED0B1A0DE091ED091AD1ED0C1AC1
:10164000B4EEE11AF1EE10FA02DD91ED0C1A01E0B0
:1016500091ED091A81ED091A91ED001AD1ED011AE7
:1016600071EE610A91ED091AD1ED061A01EE801AA8
:10167000D1ED081A01EEE01A81ED021A91ED021A7D
:10168000D1ED0B1AB4EEE11AF1EE10FA02D291ED9F
:101690000B1A0DE091ED021AD1ED0C1AB4EEE11A1D
:1016A000F1EE10FA02DD91ED0C1A01E091ED021A53
:1016B00081ED021A91ED001A81ED011A0120A0E7D7
:1016C00010B50346B0EE404AF0EE604AB0EE415A23
:1016D000B0EE613AF0EE423A0C4683F8382083F8D7
:1016E00039409FED180A83ED090A9FED160A83ED34
:1016F000000A9FED140A83ED010A9FED120A83EDA3
:10170000020A9FED100A83ED0D0AB5EEC03AF1EE24
:1017100010FA02DD83ED0A3A03E0B7EE000A83ED2A
:101720000A0AF0EE620AB0EE630A184600F00CF8FE
:10173000B0EE451AF0EE640AB0EE440A184600F026
:1017400079F810BD00000000B4EEE00AF1EE10FAE6
:1017500000DB704780ED0B0AC0ED0C0A90F83910E1
:1017600001292FD190ED021AB4EEC01AF1EE10FA51
:1017700002D2B0EE401A0BE090ED021AB4EEE01A7D
:10178000F1EE10FA02DDB0EE601A01E090ED021AFF
:1017900080ED021A90ED091AB4EEC01AF1EE10FABB
:1017A00002D2B0EE401A0BE090ED091AB4EEE01A46
:1017B000F1EE10FA02DDB0EE601A01E090ED091AC8
:1017C00080ED091A00BFC4E700B50246F0EE402ADA
:1017D00092ED041AF0EE410A92ED031AB0EE410ABE
:1017E000B0EE621A104600F025F800BD00B50246C2
:1017F000F0EE402AD2ED050AB0EE601AD2ED030AEF
:10180000B0EE600AF0EE620A104600F013F800BD78
:1018100000B50246F0EE402A92ED050AB0EE401AFD
:1018200092ED040AF0EE400AB0EE620A104600F0B3
:1018300001F800BDB5EEC00AF1EE10FA09D3F5EEDD
:10184000C00AF1EE10FA04D3B5EEC01AF1EE10FAA8
:1018500000D2704780ED030AC0ED040A80ED051A3E
:1018600080ED060AD0ED0A1A61EEA01AC0ED071A43
:10187000D0ED0A1A81EE212A80ED082A90F838105E
:10188000012911D1D0ED061AF1EE611AC0ED061A48
:10189000D0ED071AF1EE611AC0ED071AD0ED081A63
:1018A000F1EE611AC0ED081A00BFD2E770470000E0
:1018B00029B1064A12680243044B1A6004E0034A45
:1018C00012688243014B1A607047000030380240B2
:1018D00029B1064A12680243044B1A6004E0034A25
:1018E00012688243014B1A60704700004038024082
:1018F00029B1064A12680243044B1A6004E0034A05
:1019000012688243014B1A6070470000443802405D
:101910001448006840F00100124908600020114995
:10192000083108600F4800680F4908400D490860F9
:101930000E48091D08600E480A49843108600B48AA
:101940001038091D08600748006820F48020054908
:101950000860002003490C31086002498C3108609E
:101960007047000000380240FFFFF6EA1030002404
:1019700000300020F0B500210022002402250026BE
:101980000223324F3F6807F00C0121B1042905D032
:10199000082937D105E02E4F076036E02D4F07604C
:1019A00033E02A4F3F1F3F68C7F38056274F3F1F42
:1019B0003F6807F03F036EB1264FB7FBF3F7DFF840
:1019C0008CC0ACF1040CDCF800C0CCF3881C07FB25
:1019D0000CF40CE01E4FB7FBF3F7DFF870C0ACF16E
:1019E000040CDCF800C0CCF3881C07FB0CF4174F88
:1019F0003F1F3F68C7F301477F1C7D00B4FBF5F72D
:101A0000076002E0124F076000BF00BF0F4F3F6842
:101A100007F0F0010909104F7A5C0768D74047606A
:101A20000A4F3F6807F4E051890A0B4F7A5C476818
:101A3000D7408760054F3F6807F46041490B064F68
:101A40007A5C4768D740C760F0BD000008380240A4
:101A50000024F40000127A001400002010B50146A2
:101A60000022002300204A11012A02D10A4C2368D7
:101A700008E0022A03D1084C7034236802E0064CC7
:101A80007434236801F01F02012494401C400CB1FF
:101A9000012000E0002010BD003802400146002077
:101AA000034A106820F0F0000843106070470000FF
:101AB000083802400021024A117011460870704730
:101AC0000238024001460020034A106820F4E0502A
:101AD00008431060704700000838024001460020AB
:101AE000034A106820F4604040EAC100106070476B
:101AF000083802400149086670470000000047426C
:101B000070B5049C41EA82150126C6EB530645EAEE
:101B10000645054345EA0465014E356070BD000089
:101B20000438024001460020034A106820F00300F8
:101B300008431060704700000838024038B50020A4
:101B400000900024002500BF3120FFF787FF0546E5
:101B50000098401C00900098B0F5A04F01D0002DD7
:101B6000F2D03120FFF77AFF08B1012400E0002411
:101B7000204638BD704700000CB500200190009051
:101B80004148006840F480303F49086000BF3E484B
:101B9000006800F4003000900198401C019000980B
:101BA00018B90198B0F5A04FF1D13748006800F49A
:101BB000003010B10120009001E00020009000985A
:101BC000012860D130484030006840F080502E49F4
:101BD000403108602D48006840F440402B490860BF
:101BE000294808300068284908310860084600681C
:101BF00040F4004008600846006840F4A0500860C7
:101C00002348091F0860081F006840F08070091F02
:101C1000086000BF1C48006800F000700028F9D080
:101C20001A48006840F480301849086000BF17481F
:101C3000406800F480300028F9D01448006840F46F
:101C400000301249086000BF1048406800F40030BE
:101C50000028F9D040F205700E4908600A480830A3
:101C6000006820F003000849083108600846006851
:101C700040F00200086000BF03480830006800F030
:101C80000C000828F8D10CBD00380240007000405C
:101C9000195A4007003C02407047000070B5002010
:101CA0000022022300240221274D2D6805F00C009C
:101CB00020B1042806D0082834D107E0234D244E53
:101CC000356033E0234D224E35602FE01E4D2D1F31
:101CD0002D68C5F380541C4D2D1F2D6805F03F0164
:101CE00054B11C4DB5FBF1F5174E361F3668C6F3DF
:101CF000881605FB06F209E0144DB5FBF1F5124E0E
:101D0000361F3668C6F3881605FB06F20E4D2D1FEA
:101D10002D68C5F301456D1C6B00B2FBF3F50C4E4D
:101D2000356003E0094D0A4E356000BF00BF064D27
:101D30002D68C5F30315084E705D054D2D68C5402F
:101D4000034E356070BD0000083802400024F400E6
:101D50000000002000127A000400002010B5154891
:101D6000006840F47000134908601348006840F0B0
:101D700001001149086000200F49083108600E4831
:101D800000680E4908400C4908600D48091D0860AC
:101D9000081F006820F48020091F08600020064901
:101DA0000C310860FFF7E8FE4FF000600149803910
:101DB000086010BD88ED00E000380240FFFFF6FE2D
:101DC00010300024F0B50C46154600210022068C88
:101DD0004FF6FE773E400684018B028C4FF60C7660
:101DE00031407E1C06EA03162E4331434FF6F5764A
:101DF000324044F00106324301830284F0BDF0B565
:101E00000C461546002100220026078C4FF6EF7C79
:101E100007EA0C070784018B028C4FF6FF7707EA6D
:101E2000041640F6FF4739404FF6FF7707EA0337BD
:101E300039434FF6FF7707EA052739434FF65F77B7
:101E40003A4046F010073A4301830284F0BDF0B5F2
:101E50000C461546002100220026078C4FF6FF6C29
:101E600007EA0C070784818B028C4FF6FF7707EA9D
:101E700004264FF60C7739404FF6FF7707EA031731
:101E80002F4339434FF2FF573A4046F480773A43A5
:101E900081830284F0BDF0B50C4615460021002276
:101EA0000026078C4EF6FF7C07EA0C070784818B1F
:101EB000028C4FF6FF7707EA043640F6FF473940B9
:101EC0004FF6FF7707EA052739434FF6FF7707EA12
:101ED0000337394345F6FF773A4046F480573A4393
:101EE00081830284F0BD000001B582B060202049EA
:101EF00008800120488000208881029888600020A6
:101F000008821C4800F0B0F908211A4800F0EAF9EC
:101F100060220021174800F0EEF901220021154847
:101F200000F019F90121134800F009F901210846D0
:101F3000FFF7BEFC4FF4A040009001208DF8040094
:101F400000208DF806008DF8070002208DF80500AE
:101F500069460948FFF796FA4FF480510648FFF7A3
:101F6000FCFA4FF480410448FFF7F9FA0EBD000077
:101F7000F4000020000001400000024010B52DEDEB
:101F8000088B0121880700F025F901283FD1454839
:101F90000068454908600121880700F0EBF84248D5
:101FA00000684249096888420CDD3F4800683F49A3
:101FB0000968401A00EE100AB8EEC00A3C4880EDED
:101FC000000A24E0384800683849096888421EDC65
:101FD00035480068354A1268801A00EE100AB8EEDB
:101FE000C00A10EE101A084600F08CFF41EC190BE5
:101FF0009FED300B53EC102B00F08EFE41EC180BD4
:1020000000F09AFC00EE100A294880ED000A2B48E7
:10201000006800EE100AB8EEC00A2548D0ED000AAC
:1020200030EE600A10EE101A084600F06BFF41EC2B
:102030001B0B9FED230B53EC102B00F06FFD41ECBD
:10204000190B1E48006800F051FD41EC1A0B53ECCF
:10205000192B00F06DFE41EC180B00F06DFC00EE4A
:10206000100A134880ED000A90ED000A164880ED32
:10207000000A00BFFFF7C0FA00BF134890ED020A44
:10208000BCEEC00A10EE100A10490880084600880D
:10209000FFF72AFF0348006804490860BDEC088B7D
:1020A00010BD000024040040380000203C00002047
:1020B000340000200000000000000000400000206C
:1020C000000000000000D03FB800002044000020C5
:1020D0001FB501210846FFF7FBFB40F28F1002906D
:1020E00042F2CF00ADF804000020ADF80C00ADF8CE
:1020F000060001A94FF0804000F056F90121880741
:1021000000F038F801221146900700F0A3F84FF4D0
:10211000C060FFF767FA1C208DF8000001208DF8E1
:10212000010000208DF8020001208DF803006846B0
:10213000FFF71CFA0121880700F01FF81FBD21B12D
:10214000028842F08002028004E002884FF67F732A
:102150001A400280704730B5002301248C40A3B29E
:10216000048C9C430484048C02FA01F5ADB22C4328
:10217000048430BDCA430282704721B1028842F014
:102180000102028004E002884FF6FE731A400280CA
:102190007047F0B50C4615461E460021002200236C
:1021A0000189028B038C4FF6F877394021434FF6B3
:1021B000FC473A4040F201173A434FF6DD773B4087
:1021C0004FF6FF7707EA06172F433B43018102834F
:1021D0000384F0BD02460020138A0B400BB101209E
:1021E00000E00020704770B505460C46208850B9C5
:1021F0002389A28861882846FFF7E4FDE188284604
:1022000000F0A6F825E0208804280AD12389A288B6
:1022100061882846FFF7F3FDE188284600F0A1F821
:1022200017E0208808280AD12389A28861882846D7
:10223000FFF70DFEE188284600F0A0F809E02389A9
:10224000A28861882846FFF726FEE188284600F02C
:102250009EF870BD1AB183890B43838102E08389A4
:102260008B4383817047000070B500240022002357
:10227000058C4FF6FE7635400584028C8388048BEE
:102280004FF68F752C40B51E2C400D882C43751EC3
:102290002A408D892A434D882A43104DA84202D0F6
:1022A0000F4DA84213D14FF6F7752A40CD892A4326
:1022B0004FF6FB752A408D882A434FF6FF652B4069
:1022C0004FF6FF552B400D8A2B434D8A2B438380BD
:1022D00004838D684563028470BD000000000140E6
:1022E000000401400A460021018B4FF6F7731940A4
:1022F00011430183704770B503460020002418463F
:10230000183001258D40ACB21D8CA5431D8409B148
:1023100008290AD100EB610005684FF68F76354039
:1023200005600568154305600FE00D1FC5F34E05F8
:102330002844056848F6FF763540056005684FF685
:10234000FF7606EA02263543056070BD416270479C
:10235000028B4FF6F3731A400283028B0A43028307
:102360007047028B4FF2FF331A400283028B4FF605
:10237000FF7303EA01231A4302837047828B4FF6EF
:10238000F3731A408283828B0A4382837047828B65
:102390004FF2FF331A408283828B4FF6FF7303EABA
:1023A00001231A438283704700220288184B984207
:1023B0000ED0184B98420BD0B0F1804F08D0164B7E
:1023C000984205D0154B984202D0154B984204D143
:1023D0004FF68F731A404B881A43124B984207D01E
:1023E000114B984204D04FF6FF431A400B891A4311
:1023F00002804B68C3620B880385054B984202D06C
:10240000044B984201D18B7A038601238382704763
:1024100000000140000401400004004000080040AA
:10242000000C0040001000400014004030B502468F
:10243000084B084C0834141B1825B4FBF5F004288D
:1024400001D31B1D001F01F03D04034D2D5CAC406A
:102450001C6030BD08640240FE2F000810B5044621
:102460003D212046FFF7E2FF10BD000010B501211D
:102470001020FFF73DFA01210846FFF719FA07225D
:1024800009211148FFF746F807220A210E48FFF7F5
:1024900041F84FF4806251100B4800F0DDF84FF422
:1024A000E1310A4800F029F82521084800F0EBF84E
:1024B000012240F22551054800F03EF80121034871
:1024C00000F00FF810BD00000000024000100140B5
:1024D00001F40072B2F5007F00D100BFCA43028050
:1024E000704721B1828942F40052828104E08289DE
:1024F0004DF6FF731A40828170477FB505460C4642
:1025000000940020ADF80C000C20ADF80A0000206B
:10251000ADF80800ADF80600ADF80400694628469D
:1025200000F030F87FBD1AB1838A0B43838202E04A
:10253000838A8B4383827047F0B5034600240026CC
:102540000025002040F66A17B94200D100BF1846A6
:10255000C1F3421401F01F06012707FA06F5012C0A
:1025600001D10C3004E0022C01D1103000E0143015
:102570001AB107682F43076002E00768AF4307609E
:10258000F0BD00002DE9FF4705460E460024A14698
:1025900000BFA046B08900B100BF2C8A24F440548B
:1025A000F08804432C82AC8941F20C608443B088EB
:1025B00031890843718908430443AC81AC8A24F40F
:1025C0004074B0890443AC826846FFF7D3F92048D1
:1025D000854202D01F48854202D1DDF80C9001E00F
:1025E000DDF80890A88900F4004040B109EBC9006B
:1025F00000EB091031684900B0FBF1F707E009EB87
:10260000C90000EB091031688900B0FBF1F76420C4
:10261000B7FBF0F004012009642101FB1078A889C0
:1026200000F4004040B1322000EBC800B0FBF1F0F4
:1026300000F00700044308E0322000EB081064219A
:10264000B0FBF1F000F00F0004432C81BDE8FF87E0
:1026500000100140001401407CB506460C461546AA
:1026600044EA0500009002208DF804008DF8050072
:1026700000208DF8060001208DF8070069463046DD
:10268000FEF700FF7CBD38B505460C4640F22551EB
:102690002846FFF71DFF8DF8004001208DF803004C
:1026A00000208DF801008DF802006846FEF75EFFFD
:1026B00038BD00BFFEE703B401984100009850EA1E
:1026C000C12018BF04204A0D18BF40F0010040F29D
:1026D000FF72B2EB515F08BF40F00200012808BF53
:1026E000052002B07047000000B587B0012102202C
:1026F000FFF7EEF802230122C0211D48FEF7CEFDB0
:10270000022206211A48FEF705FF02220721184877
:10271000FEF700FF0020ADF804004FF6FF700290B6
:102720000020ADF80600ADF80C0001A91148FFF734
:102730003BFE0420ADF810000020ADF81200ADF80B
:1027400018000120ADF8140004A90A48FFF74BFD5A
:1027500000231A4603210748FFF71BFD0021054807
:10276000FFF7F4FD01210348FFF707FD07B000BDA7
:10277000000002400004004000B587B001210420A1
:10278000FFF7A6F802231A46C0211D48FEF786FD72
:10279000022206211A48FEF7BDFE02220721184830
:1027A000FEF7B8FE0020ADF804004FF6FF7002906F
:1027B0000020ADF80600ADF80C0001A91148FFF7A4
:1027C000F3FD0420ADF810000020ADF81200ADF8C4
:1027D00018000120ADF8140004A90A48FFF703FD12
:1027E00000231A4603210748FFF7D3FC00210548C0
:1027F000FFF7ACFD01210348FFF7BFFC07B000BDA8
:1028000000040240000800402DED028B8EB0FFF75F
:10281000A5FA342101A8FDF7ACFDFEF7AFFDFFF7E7
:1028200063FFFFF7A9FFFFF721FEFEF753FDFFF758
:102830004FFC42F2CF00FFF757FB00220121DFEDF2
:10284000272A9FED272ADFED271A9FED251ADFEDB6
:10285000240A9FED230A2448FEF732FF3C20234937
:1028600008809FED230A2048FEF7D2FFB2EE040A4B
:102870001D48FEF7BBFF9FED1A0A1B48FEF7A4FF99
:102880001A48008800EE900AB8EE600A164880EDFB
:102890000D0A00BF20E01748FDF74CFD84B2224628
:1028A00014491548FEF73CFD144890ED000A10EE5F
:1028B000100A00F027FB41EC180B53EC182B10A169
:1028C00001A8FDF7EFFC01A8FDF734FD84B2224614
:1028D00001A90948FEF724FDDDE70000003C03469E
:1028E000000000008FC2F53CB80000204A00002024
:1028F0000000C843540000200010014034000020B4
:102900005053503A2025660D0A00000010B50029EA
:102910000AD00878002807D005487844FEF7B0F8B8
:10292000002801D0002010BD0248784410BD0000EE
:102930009E0700009607000021F00042A2F16052BD
:10294000B2F5801F01F0004328BFD2F17F6C0BD994
:102950005FEA001C43EAC20242EB507018BF7047A6
:1029600028BF20F001007047B2F5801FBCBF184699
:1029700070474FEA410C1CF5001F02D2084600F0D8
:1029800037BB70B500F074F900000089FFF7F6BF9F
:102990004FF00040A0F580007047000010B591EAAC
:1029A000030F48BF83F0004300F1CA81841A71EB22
:1029B000030C05D2121943EB0C03001B61EB0C0155
:1029C000DFF824E14FEA1154A4EB135C1EEA430F35
:1029D00018BF9EEA445F73D023EA0E03DCF1200E99
:1029E00021EA045143F4801332D322FA0CFE10EB97
:1029F0000E0023FA0CFE41EB0E01CCF1200E03FA7F
:102A00000EFE10EB0E0051F10001B1F5801FCCF16C
:102A1000200E32D201EB045112FA0EF2BDE8104042
:102A200058BF7047401C38BF5FEA420218BF70476A
:102A3000002814BF20F0010041F100014FEA4103DA
:102A400013F5001F38BF7047A1F1C04100F05EB917
:102A5000012A43EB0302ACF1200CDCF11F0E32BF64
:102A60004FF0000E23FA0CF310EB030041EB04517E
:102A7000B4EB115FD0D0A1EB045101F580114908EE
:102A80005FEA300001EB04510ED350F1000038BF73
:102A900012FA0EFE08D1BDE81040C9E7401C38BF4D
:102AA0005FEA4202CAD1C3E7BDE810404FEA4103E2
:102AB00013F5001F38BF7047A1F1C04100F026B9DF
:102AC0009EEA445F08D011EA5E0FBDE8104004BFE3
:102AD00001F0004100207047BDE8104070B500F0E3
:102AE000C7F800BF64FBBE3E0000E0FF10F00042EC
:102AF00048BF4042B0FA80F310FA03F10AD0C3F1A4
:102B00001D0303F580634FEA415002EB035202EBD1
:102B1000D12170474FF0000070470000DFF848C136
:102B200070B51CEA111E1EBF1CEA13159EEA0C0F9D
:102B300095EA0C0F00F06F8081EA030423EA4C133E
:102B40004EEAD47E21EA4C1141F4801143F4801303
:102B5000AE44A1FB024CA0FB0365AEF17F7E3619AB
:102B600055EB0C05A1FB034C4CF10003A0FB021C30
:102B700016EB0C06654153F10003094218BF46F0FD
:102B8000010613F4007F0BD14FEA03314FEA053001
:102B9000340341EA155140EA16506FF003020AE08F
:102BA0004FEAC3214FEAC520F40241EA555140EAF9
:102BB00056506FF0020202EB2E4201EB025585EAFD
:102BC000CE710AD05FEA440C18BF24F0004450F1E3
:102BD000000041F1000120EAD47040F2FE7C624521
:102BE00000D270BDA84214BF4FF080444FF0404463
:102BF000002E08BF0024BEF1806FA8BFA1F1C04124
:102C0000BDE8704080F282804FF0000001F1C041C9
:102C100001F0004170479EEA0C0F0CEA131518BF33
:102C200095EA0C0F06D04FF0000081EA030E0EF07B
:102C3000004170BD00F01CF88900013E00F007B8AB
:102C400000F009B84FEA430C5FEA5C5C08D081EA07
:102C5000030100F05BB84FEA410C5FEA5C5CF6D11F
:102C60004FF00000014970470000FF070000F87FA7
:102C70000EF1020E2EF0030E5EF8046B364205D400
:102C8000012A43EB030515F5001F12D8012841EB7B
:102C9000010C1CF5001F0CD80ED14FEAD17C15F5A4
:102CA000001F0CEB4C0C0CF1020C08BF4CEBD37C5E
:102CB00004E04FF0080C01E04FEAD37C0CEB4C052C
:102CC00026FA05F606F00706B6F1040C06D20EEB5E
:102CD000860CBDE870404CF0010C6047DFE80CF05A
:102CE000090B02024FF000414FF00000A1F5002156
:102CF00070BD19461046012851EB010418BFD4F5E8
:102D0000001484BF002001F0004170BD0808A0F548
:102D100000114FEA3101704791EA030F10B581F0BD
:102D200000413FF543AE83F0004300F009B80000D6
:102D300010B591EA030F48BF83F000433FF536AE6C
:102D4000841A71EB030C07D212198CF0004C43EB80
:102D50000C03001B61EB0C01DFF8A4E14FEA1154F6
:102D6000A4EB135C1EEA430F18BF9EEA445F00F019
:102D7000B08023EA6E03524221EA0451C3EB6E0392
:102D800038BF5B1EDCF1200E25D322FA0CFE10EBBF
:102D90000E0043FA0CFE41EB0E01CCF1200E03FABB
:102DA0000EFE10EB0E0051F10001CCF1200E29D4E3
:102DB00012FA0EF201EB0451BDE8104058BF704703
:102DC000401C1CBFB2F1004F704700280CBF491CCB
:102DD00020F00100704712EB020E43EB030218BF14
:102DE0004FF0010E4EEA4202ACF1200CDCF11E0E57
:102DF00054D943FA0CFE10EB0E0051F1FF31CCF127
:102E00001E0ED5D50EF1010E12FA0EFE404141EB19
:102E1000010101EB445C5FEA5C5C10D910EBDE70F1
:102E200001EB045138BFBEF1004FBDE8104018BFA0
:102E3000704700280CBF491C20F00100704730D2B9
:102E40004FEAD42C11F5001124F400641BD0B1FA20
:102E500081F20B3AA41AA41ED2F12003914030FA59
:102E600003F31943904001EBCC71002C01EB0451AA
:102E7000BDE81040A8BF704701F1C0414FF000000D
:102E800001F000417047B0FA80F310FA03F100D16D
:102E900010BDE41A173C4805C90AE4E701EB0451E8
:102EA00010BD491001EB0451BDE810404FEA30005D
:102EB00002E04FF0000170474A0008BF0042F8D01E
:102EC000B2F5001F28BF704701F000414FF000002D
:102ED00070479EEA445F07D011EA5E0FBDE81040DC
:102EE00004BF002100207047BDE8104070B5FFF717
:102EF000BFFE00BF40DFF63E83F000411046704742
:102F00000000E0FF43004FEAD30C4FEA3C0C434083
:102F10001FBF40070CF1605113F0FE4F70471CF0CB
:102F2000006F03D100200CF0004170470CF000430B
:102F300043EA507010B540EACC0000F00EF800BF34
:102F4000000000924FEA0001FFF7E0BE4FF00041A1
:102F50004FF00000A1F5002170470EF1020E2EF097
:102F6000030E5EF8044B244204D44FEA4102B2F14E
:102F70007F4F11D84FEA4003B3F17F4F0CD80ED1E9
:102F80004FEAD07CB2F17F4F0CEB4C0C0CF1020CF1
:102F900008BF4CEBD17C04E04FF0080C01E04FEA95
:102FA000D17C0CEB4C0324FA03F404F00704B4F1D5
:102FB000040C06D20EEB840CBDE810404CF0010C62
:102FC0006047DFE80CF0070802024FF00040A0F570
:102FD000800010BD0846420018BFD2F1807288BF41
:102FE00000F0004010BD4FF04070E1EE100A704755
:102FF000FF2141EAD050C0057047FDF7BDBA000679
:103000001016000002400000000000A000000000B8
:1030100005400000000000C8000000000C40000057
:103020000000409C00000000194000000020BCBED1
:103030000000000034400000BFC91B8E00000004E7
:10304000B5400000504BCFD06607E2CF0100000032
:103050006C4100003E8251AADFEEA734010000005F
:10306000D9420000DCB5A0E23A301F97FFFFFFFF16
:10307000B4450000FD25A0C8E9A3C14FFFFFFFFF35
:10308000FF3F00000000008000000000FF3F000044
:103090000000008000000000D43000080000002084
:1030A000B8000000E80100088C310008B8000020DA
:1030B000F0060000040200081C00000043000000AD
:1030C000F8FFFFFF0C0000000E0000000F000000E2
:1030D0002E0000000095BA0A000000000000000069
:1030E00001020304060708090000000001020304AE
:1030F00001020304060708090000000000000000A8
:1031000000000000000000000000000000000000BF
:1031100000000000000000000000000000000000AF
:10312000000000000000000048656C6C6F206E61BC
:103130006D622062616E6720746F20766961205530
:103140005341525432207769746820545820444DBA
:10315000410D0A0000000000000000000000000017
:10316000000000000000000000000000000000005F
:10317000000000000000000000000000000000004F
:0C31800000000000000000000000000043
:04000005080001AD41
:00000001FF
