:020000040800F2
:100000000007002055020008970600088F06000828
:10001000930600083D0500087D1900080000000057
:10002000000000000000000000000000A10C00081B
:10003000A905000800000000D9090008C50D000846
:100040006F0200086F0200086F0200086F020008CC
:100050006F0200086F0200086F0200086F020008BC
:100060006F0200086F0200086F0200086F020008AC
:100070006F0200086F0200086F0200086F0200089C
:100080006F0200086F0200086F0200086F0200088C
:100090006F0200086F0200086F0200086F0200087C
:1000A0006F0200086F0200086F0200086F0200086C
:1000B0006F02000829110008711100086F02000882
:1000C0006F0200086F0200086F0200086F0200084C
:1000D0006F0200086F0200086F0200086F0200083C
:1000E0006F0200086F0200086F0200086F0200082C
:1000F0006F0200086F0200086F0200086F0200081C
:100100006F0200086F0200086F0200086F0200080B
:100110006F0200086F0200086F0200086F020008FB
:100120006F0200086F0200086F0200086F020008EB
:100130006F0200086F0200086F0200086F020008DB
:100140006F0200086F0200086F0200086F020008CB
:100150006F0200086F0200086F0200086F020008BB
:100160006F0200086F0200086F0200086F020008AB
:100170006F0200086F0200086F0200086F0200089B
:100180006F0200086F0200086F0200086F0200088B
:100190006F0200086F0200086F0200086F0200087B
:1001A0006F0200086F0200086F02000800F002F8FA
:1001B00000F041F80AA090E8000C82448344AAF1C0
:1001C0000107DA4501D100F036F8AFF2090EBAE8BE
:1001D0000F0013F0010F18BFFB1A43F0010318477B
:1001E000FC2100001C220000103A24BF78C878C10E
:1001F000FAD8520724BF30C830C144BF04680C602D
:10020000704700000023002400250026103A28BF74
:1002100078C1FBD8520728BF30C148BF0B60704778
:10022000642900F07F80002070471FB502F0CCF8F1
:100230001FBD10B510BD00F030F91146FFF7F5FFF6
:1002400001F006FC00F04EF903B4FFF7F2FF03BC27
:1002500000F052F90948804709480047FEE7FEE7E9
:10026000FEE7FEE7FEE7FEE7FEE7FEE7FEE7FEE766
:1002700004480549054A064B70470000890E0008EE
:10028000AD0100080001002000070020000300204D
:10029000000300200FB41CB5074B06AA7B44694637
:1002A0000090059800F0DBF80020694600F0EAF8BD
:1002B0001CBC5DF814FB0000E50100002DE9F041D5
:1002C0000E460446002020622046E168884730B38D
:1002D000252805D0D4E901219047206A401CF2E787
:1002E000E168204600278847050018D0A5F14100A5
:1002F000192802D820354FF4006732462946204697
:100300002760FFF78DFF40B1012804D0F61D26F0CD
:1003100007060836D8E7361DD6E72846DAE7206A0A
:10032000BDE8F0812DE9F0410646002410687529EA
:10033000314616A510D0AFF30080002802DA404203
:1003400013A507E031688A0701D512A502E0490725
:1003500004D511A5012401E0AFF3008000210A2299
:1003600006F1240709E0B0FBF2FCB0FBF2F302FB5C
:100370001C00303078541846491C0028F3D123461D
:100380002A463046BDE8F04100F00BB800000000FE
:100390002D0000002B000000200000007047704777
:1003A00070472DE9F0470D4699469246044600F104
:1003B00024080168880604D5E06921F01001216055
:1003C00000E00120A84201DD471B00E00027A169F1
:1003D0007A1902EB0900081AA0612078C00602D43D
:1003E0002046AFF30080002608E0D4E901211AF886
:1003F00006009047206A401C761C20624E45F4DBC4
:100400002078C0060AD52046AFF3008006E0D4E984
:10041000012130209047206A401C2062381EA7F13D
:100420000107F4DC07E0D4E9012118F80500904742
:10043000206A401C2062281EA5F10105F3DC20463D
:10044000AFF300802078000602D50220BDE8F087D7
:100450000120FBE701694A1C02610878704700B57A
:100460008FB0CDE901310021059105497944CDE9ED
:10047000031011466846FFF721FF0FB000BD0000D2
:10048000E5FFFFFF0A6802F8010B0A6070470000F1
:10049000004870479C00002070477546FFF7F8FF42
:1004A000AE4605006946534620F00700854618B061
:1004B00020B5FFF7DDFEBDE820404FF000064FF00D
:1004C00000074FF000084FF0000B21F00701AC4689
:1004D000ACE8C009ACE8C009ACE8C009ACE8C009A8
:1004E0008D46704710B50446AFF300802046BDE846
:1004F0001040FFF7A9BE000001491820ABBEFEE77F
:10050000260002002DE9FC4107460C4615461E4612
:100510000121284600F062FA0094F0B28DF8040040
:1005200000208DF806008DF8070002208DF80500E8
:100530006946384600F040F8BDE8FC8100BFFEE7A0
:1005400038B500F07BFA012000F04AFB00F08CFB8C
:100550000446012C23D1072002234FF4A87208215E
:100560000090C80400F062FB012000F059FB00BFBE
:10057000392000F009FB0028FAD0052000F016F819
:10058000002000F021FB4FF4A05000F031FB4FF4AD
:10059000805000F039FB022000F05AFB01E000BF60
:1005A000FEE700F011FC38BD70470000014A1070F2
:1005B00070470000003C0240F0B50A4600210023CD
:1005C000002400BF3DE0012505FA01F3156805EAA6
:1005D00003049C4234D105684F000326BE40B54356
:1005E000056015794E00B5400668354305601579FC
:1005F000012D02D01579022D16D185684F000326F2
:10060000BE40B543856055794E00B5408668354398
:100610008560456801268E40B543456045689679FA
:100620008E40B6B235434560C5684F000326BE40D4
:10063000B543C560D5794E00B540C6683543C56041
:10064000491C1029BFD3F0BDF0B5002300244D078D
:10065000ED0E02FA05F3CE1000F1200555F82650F4
:100660004E07F70E0F26BE40B543CF1000F120060F
:1006700046F82750CE1000F1200555F8265045EADF
:100680000304CE1000F1200545F82640F0BD00BF60
:10069000FEE700BFFEE7704770B5002100230F2280
:1006A000C4781CB3174C246804F4E064C4F5E06417
:1006B000C4F30721C1F10404E3B20A4144789C4029
:1006C000E1B28478144021430C07210E0E4C0578CA
:1006D0006155047804F01F050124AC4005786D11C4
:1006E000AD0005F1E025C5F8004109E0047804F00B
:1006F0001F050124AC40054D0678761145F82640CB
:1007000070BD00000CED00E000E400E080E100E0DE
:1007100002490143024A1160704700000000FA05D7
:100720000CED00E0014691F8390008B9002070474F
:1007300091ED0D1AD1ED001A31EE610A91ED091A11
:10074000D1ED071A01EE801A81ED091A91ED091A0F
:10075000D1ED0B1AB4EEE11AF1EE10FA02D291EDDE
:100760000B1A0DE091ED091AD1ED0C1AB4EEE11A55
:10077000F1EE10FA02DD91ED0C1A01E091ED091A8B
:1007800081ED091A91ED001AD1ED011A71EE610A9D
:1007900091ED091AD1ED061A01EE801AD1ED081A71
:1007A00001EEE01A81ED021A91ED021AD1ED0B1A59
:1007B000B4EEE11AF1EE10FA02D291ED0B1A0DE04F
:1007C00091ED021AD1ED0C1AB4EEE11AF1EE10FA25
:1007D00002DD91ED0C1A01E091ED021A81ED021A91
:1007E00091ED001A81ED011A0120A0E710B5034632
:1007F000B0EE404AF0EE604AB0EE415AB0EE613AD7
:10080000F0EE423A0C4683F8382083F839409FEDE9
:10081000180A83ED090A9FED160A83ED000A9FED81
:10082000140A83ED010A9FED120A83ED020A9FED7F
:10083000100A83ED0D0AB5EEC03AF1EE10FA02DDB2
:1008400083ED0A3A03E0B7EE000A83ED0A0AF0EE00
:10085000620AB0EE630A184600F00CF8B0EE451AD2
:10086000F0EE640AB0EE440A184600F079F810BDC4
:1008700000000000B4EEE00AF1EE10FA00DB704771
:1008800080ED0B0AC0ED0C0A90F8391001292FD128
:1008900090ED021AB4EEC01AF1EE10FA02D2B0EEE8
:1008A000401A0BE090ED021AB4EEE01AF1EE10FAE5
:1008B00002DDB0EE601A01E090ED021A80ED021A3E
:1008C00090ED091AB4EEC01AF1EE10FA02D2B0EEB1
:1008D000401A0BE090ED091AB4EEE01AF1EE10FAAE
:1008E00002DDB0EE601A01E090ED091A80ED091A00
:1008F00000BFC4E700B50246F0EE402A92ED041AAC
:10090000F0EE410A92ED031AB0EE410AB0EE621A1F
:10091000104600F025F800BD00B50246F0EE402A72
:10092000D2ED050AB0EE601AD2ED030AB0EE600A0D
:10093000F0EE620A104600F013F800BD00B5024662
:10094000F0EE402A92ED050AB0EE401A92ED040A4C
:10095000F0EE400AB0EE620A104600F001F800BD69
:10096000B5EEC00AF1EE10FA09D3F5EEC00AF1EEC9
:1009700010FA04D3B5EEC01AF1EE10FA00D27047A7
:1009800080ED030AC0ED040A80ED051A80ED060A29
:10099000D0ED0A1A61EEA01AC0ED071AD0ED0A1ABE
:1009A00081EE212A80ED082A90F83810012911D112
:1009B000D0ED061AF1EE611AC0ED061AD0ED071A55
:1009C000F1EE611AC0ED071AD0ED081AF1EE611AC6
:1009D000C0ED081A00BFD2E77047000029B1064AEF
:1009E00012680243044B1A6004E0034A126882430F
:1009F000014B1A60704700003038024029B1064AA6
:100A000012680243044B1A6004E0034A12688243EE
:100A1000014B1A60704700004038024029B1064A75
:100A200012680243044B1A6004E0034A12688243CE
:100A3000014B1A60704700004438024014480068B7
:100A400040F0010012490860002011490831086097
:100A50000F4800680F4908400D4908600E48091DFD
:100A600008600E480A49843108600B481038091D97
:100A700008600748006820F48020054908600020CD
:100A800003490C31086002498C310860704700004E
:100A900000380240FFFFF6EA10300024003000204A
:100AA000F0B5002100220024022500260223324F47
:100AB0003F6807F00C0121B1042905D0082937D17E
:100AC00005E02E4F076036E02D4F076033E02A4FD8
:100AD0003F1F3F68C7F38056274F3F1F3F6807F00F
:100AE0003F036EB1264FB7FBF3F7DFF88CC0ACF1D4
:100AF000040CDCF800C0CCF3881C07FB0CF40CE001
:100B00001E4FB7FBF3F7DFF870C0ACF1040CDCF854
:100B100000C0CCF3881C07FB0CF4174F3F1F3F6845
:100B2000C7F301477F1C7D00B4FBF5F7076002E0C7
:100B3000124F076000BF00BF0F4F3F6807F0F00182
:100B40000909104F7A5C0768D74047600A4F3F6831
:100B500007F4E051890A0B4F7A5C4768D7408760F9
:100B6000054F3F6807F46041490B064F7A5C4768C0
:100B7000D740C760F0BD0000083802400024F400F0
:100B800000127A001400002010B501460022002354
:100B900000204A11012A02D10A4C236808E0022AE7
:100BA00003D1084C7034236802E0064C7434236887
:100BB00001F01F02012494401C400CB1012000E010
:100BC000002010BD0038024001460020034A106892
:100BD00020F0F00008431060704700000838024021
:100BE0000021024A11701146087070470238024015
:100BF00001460020034A106820F4E05008431060CA
:100C0000704700000838024001460020034A10687F
:100C100020F4604040EAC10010607047083802408C
:100C200001490866704700000000474270B5049C07
:100C300041EA82150126C6EB530645EA06450543FF
:100C400045EA0465014E356070BD0000043802407D
:100C500001460020034A106820F00300084310609A
:100C6000704700000838024038B50020009000248A
:100C7000002500BF3120FFF787FF05460098401C84
:100C800000900098B0F5A04F01D0002DF2D0312097
:100C9000FFF77AFF08B1012400E00024204638BDA8
:100CA000704700000CB5002001900090414800689A
:100CB00040F480303F49086000BF3E48006800F4BF
:100CC000003000900198401C0190009818B90198DC
:100CD000B0F5A04FF1D13748006800F4003010B1F2
:100CE0000120009001E0002000900098012860D1D0
:100CF00030484030006840F080502E494031086054
:100D00002D48006840F440402B49086029480830CD
:100D100000682849083108600846006840F400402F
:100D200008600846006840F4A05008602348091F86
:100D30000860081F006840F08070091F086000BF4D
:100D40001C48006800F000700028F9D01A480068BC
:100D500040F480301849086000BF1748406800F42C
:100D600080300028F9D01448006840F4003012495F
:100D7000086000BF1048406800F400300028F9D037
:100D800040F205700E4908600A480830006820F0FB
:100D900003000849083108600846006840F0020076
:100DA000086000BF03480830006800F00C00082805
:100DB000F8D10CBD0038024000700040195A4007BD
:100DC000003C02407047000070B500200022022362
:100DD00000240221274D2D6805F00C0020B10428C5
:100DE00006D0082834D107E0234D244E356033E087
:100DF000234D224E35602FE01E4D2D1F2D68C5F36B
:100E000080541C4D2D1F2D6805F03F0154B11C4D21
:100E1000B5FBF1F5174E361F3668C6F3881605FB8D
:100E200006F209E0144DB5FBF1F5124E361F366897
:100E3000C6F3881605FB06F20E4D2D1F2D68C5F36F
:100E400001456D1C6B00B2FBF3F50C4E356003E001
:100E5000094D0A4E356000BF00BF064D2D68C5F331
:100E60000315084E705D054D2D68C540034E356075
:100E700070BD0000083802400024F400000000208B
:100E800000127A000400002010B51548006840F4F4
:100E90007000134908601348006840F001001149D0
:100EA000086000200F49083108600E4800680E49AC
:100EB00008400C4908600D48091D0860081F0068BB
:100EC00020F48020091F0860002006490C310860CA
:100ED000FFF7E8FE4FF0006001498039086010BD5F
:100EE00088ED00E000380240FFFFF6FE10300024DD
:100EF000F0B50C46154600210022068C4FF6FE7711
:100F00003E400684018B028C4FF60C7631407E1CED
:100F100006EA03162E4331434FF6F576324044F08D
:100F20000106324301830284F0BDF0B50C4615463C
:100F3000002100220026078C4FF6EF7C07EA0C0701
:100F40000784018B028C4FF6FF7707EA041640F600
:100F5000FF4739404FF6FF7707EA033739434FF62B
:100F6000FF7707EA052739434FF65F773A4046F0A7
:100F700010073A4301830284F0BDF0B50C461546D4
:100F8000002100220026078C4FF6FF6C07EA0C07B1
:100F90000784818B028C4FF6FF7707EA04264FF611
:100FA0000C7739404FF6FF7707EA03172F43394391
:100FB0004FF2FF573A4046F480773A4381830284E8
:100FC000F0BDF0B50C461546002100220026078C26
:100FD0004EF6FF7C07EA0C070784818B028C4FF6E4
:100FE000FF7707EA043640F6FF4739404FF6FF77B0
:100FF00007EA052739434FF6FF7707EA03373943F6
:1010000045F6FF773A4046F480573A43818302849D
:10101000F0BD000000B585B001210846FFF7FEFCD9
:1010200001210320FFF7EAFC4FF40070009002203A
:101030008DF8040003208DF8050000208DF80600CF
:101040008DF8070069461948FFF7B6FA4FF480405B
:10105000009069461648FFF7AFFA012209211348AC
:10106000FFF7F2FA01220E211148FFF7EDFA0920ED
:10107000ADF8080042F2CF0003900020ADF80A005E
:10108000ADF810008DF8120002A90A4800F0F0FA3D
:101090000121084800F082F90121064800F0ABF96F
:1010A0000121044800F0B3F905B000BD0000024082
:1010B000000402400000014001B586B06020ADF898
:1010C00004000120ADF806000020ADF81000042057
:1010D000ADF808000020ADF812000698039000203B
:1010E000ADF81400ADF8160001A90E4800F008FA9A
:1010F00008210C4800F056FA60220421094800F04B
:101100005EFA01220421074800F054F90422114636
:10111000044800F05EF90121024800F03FF907B0F1
:1011200000BD00000000014010B501210E4800F094
:101130009EF9012817D10C48008800F0100038B142
:101140000A480068A0F57F40FF380849086006E0BB
:10115000064800684FF6FF71084404490860012101
:10116000014800F045F910BD0004004024000020B3
:1011700010B52DED088B01215C4800F078F90128AD
:101180006BD15B4800685B49096808445A490860AC
:101190000121564800F02CF9574800685749096862
:1011A000884223DD54490968544A1268881A00F0BD
:1011B0000CFF41EC1A0B9FED520B53EC102B00F07F
:1011C0007DFD41EC190B9FED500B53EC102B00F003
:1011D00013FF41EC180B00F097FC00EE100ABDEE77
:1011E000C00A10EE100A4A49086036E0424800681A
:1011F00042490968884227DA3F4909683F4A12682C
:10120000881A00F0E2FE41EC1A0B9FED3D0B53EC07
:10121000102B00F053FD41EC190B9FED3B0B53ECF1
:10122000102B00F0E9FE41EC180B00F06DFC00EE15
:10123000100ADFED380A30EEC00ABDEEC00A10EE2B
:10124000100A3349086008E02B4800682B490968F8
:10125000884202D100202E4908602F4909682C4A93
:101260001268881A00F0B1FE41EC1B0B9FED2B0BAE
:1012700053EC102B00F0C0FE41EC190B264800681F
:1012800000F0A3FE41EC1A0B53EC192B00F0B2FF57
:1012900041EC180B00F06AFE1D4908600846006822
:1012A00000EE900AB8EEE00A1E4880ED000A00BF8A
:1012B000FFF738FA00BF1B4890ED020ABCEEC00AE7
:1012C00010EE100A1849088008460088FFF7F4FE5F
:1012D0000F4800681049086005480068054909681A
:1012E000084406490860BDEC088B10BD00080040AA
:1012F000240400402400002030000020340000209E
:101300000000000000A09440000000000070B74002
:10131000280000200000000058000020000000000D
:101320000000D03F60000020400000201FB50121D8
:101330000420FFF763FB6320029042F2CF00ADF878
:1013400004000020ADF80C00ADF8060001A9124819
:1013500000F08EF90121104800F04AF801221146F0
:101360000D4800F0C4F84FF48060FFF7D1F91E205B
:101370008DF8000001208DF8010000208DF802009A
:1013800001208DF803006846FFF786F90121024825
:1013900000F031F81FBD00000008004021B10288B4
:1013A00042F08002028004E002884FF67F731A4008
:1013B0000280704730B5002301248C40A3B2048C16
:1013C0009C430484048C02FA01F5ADB22C430484DE
:1013D00030BD30B5002304248C40A3B2048C9C4360
:1013E0000484048C02FA01F5ADB22C43048430BDB0
:1013F000CA430282704721B1028842F00102028092
:1014000004E002884FF6FE731A400280704731B143
:10141000B0F8442042F40042A0F8442005E0B0F8BF
:101420004420C2F30E02A0F844207047F0B50C46E9
:1014300015461E460021002200230189028B038CE1
:101440004FF6F877394021434FF6FC473A4040F2D7
:1014500001173A434FF6DD773B404FF6FF7707EA37
:1014600006172F433B43018102830384F0BD0246EC
:101470000020138A0B400BB1012000E000207047D0
:1014800070B505460C46208850B92389A28861882A
:101490002846FFF72DFDE188284600F0BDF825E03D
:1014A000208804280AD12389A28861882846FFF76A
:1014B0003CFDE188284600F0B8F817E020880828AD
:1014C0000AD12389A28861882846FFF756FDE18862
:1014D000284600F0B7F809E02389A28861882846E9
:1014E000FFF76FFDE188284600F0B5F870BD1AB12E
:1014F00083890B43838102E083898B438381704717
:1015000070B5002400220023058C4FF6EF7635409D
:101510000584028C8388048B48F6FF752C404FF6B7
:10152000FF452C400D884FF6FF7606EA05252C4333
:101530004FF6DF752A408D8906EA05152A434D8846
:1015400006EA05152A43154DA84202D0144DA842BB
:101550001DD14FF67F752A40CD894FF6FF7606EAFA
:1015600005152A434FF6BF752A408D8806EA0515F2
:101570002A434FF6FF352B404FF2FF752B400D8A63
:1015800006EA85052B434D8A06EA85052B438380B1
:1015900004838D688563028470BD000000000140F3
:1015A000000401400A460021018B4FF2FF731940ED
:1015B0004FF6FF7303EA022319430183704770B5A6
:1015C0000346002000241846183001258D40ACB297
:1015D0001D8CA5431D8409B108290AD100EB6100C7
:1015E00005684FF68F763540056005681543056040
:1015F0000FE00D1FC5F34E052844056848F6FF7639
:101600003540056005684FF6FF7606EA0226354349
:10161000056070BD41627047028B4FF6F3731A404C
:101620000283028B0A4302837047028B4FF2FF331F
:101630001A400283028B4FF6FF7303EA01231A4319
:1016400002837047828B4FF6F3731A408283828B3A
:101650000A4382837047828B4FF2FF331A408283A2
:10166000828B4FF6FF7303EA01231A43828370478C
:1016700000220288184B98420ED0184B98420BD08B
:10168000B0F1804F08D0164B984205D0154B9842C8
:1016900002D0154B984204D14FF68F731A404B88F5
:1016A0001A43124B984207D0114B984204D04FF680
:1016B000FF431A400B891A4302804B68C3620B88B0
:1016C0000385054B984202D0044B984201D18B7A96
:1016D000038601238382704700000140000401401B
:1016E0000004004000080040000C004000100040D2
:1016F0000014004010B501211020FFF78FF90121DF
:101700000220FFF76BF9072206210E48FEF79CFF27
:10171000072211460B48FEF797FF8021402000F07A
:10172000FFF800F029F82521074800F011F90122FF
:1017300040F22551044800F044F80121024800F02D
:101740000EF810BD000402400010014001F40072C8
:10175000B2F5007F00D100BFCA430280704721B1BB
:10176000828942F40052828104E082894DF6FF733F
:101770001A408281704700001FB54FF41650009048
:101780000020ADF80C000C20ADF80A000020ADF8E8
:101790000800ADF80600ADF804006946014800F005
:1017A00035F81FBD0010014002460020B1F5007F52
:1017B00000D100BF13880B400BB1012000E00020D6
:1017C0007047F0B50346002400260025002040F6AF
:1017D0006A17B94200D100BF1846C1F3421401F0A4
:1017E0001F06012707FA06F5012C01D10C3004E091
:1017F000022C01D1103000E014301AB107682F43D9
:10180000076002E00768AF430760F0BD2DE9FF47BE
:1018100005460E460024A14600BFA046B08900B18F
:1018200000BF2C8A24F44054F08804432C82AC89F5
:1018300041F20C608443B0883189084371890843C0
:101840000443AC81AC8A24F44074B0890443AC8274
:101850006846FFF725F92048854202D01F48854297
:1018600002D1DDF80C9001E0DDF80890A88900F4C1
:10187000004040B109EBC90000EB09103168490094
:10188000B0FBF1F707E009EBC90000EB0910316884
:101890008900B0FBF1F76420B7FBF0F004012009E8
:1018A000642101FB1078A88900F4004040B1322087
:1018B00000EBC800B0FBF1F000F00700044308E0C3
:1018C000322000EB08106421B0FBF1F000F00F00B3
:1018D00004432C81BDE8FF87001001400014014043
:1018E00010B5044600BF80210448FFF75DFF0028C3
:1018F000F9D02146014800F00EF810BD001001405B
:1019000010B5044603E014F8010BFFF7E9FF207857
:101910000028F8D110BDC1F3080282807047000092
:101920007CB505460C4645EA0400009002208DF87F
:1019300004008DF8050000208DF8060001208DF8C8
:10194000070069460148FEF737FE7CBD00040240EF
:1019500038B505460C4640F225512846FFF7F6FEFD
:101960008DF8004001208DF8030000208DF8010063
:101970008DF802006846FEF78FFE38BD00BFFEE717
:1019800000B587B001210220FFF738F802230122B9
:10199000C0212C48FEF7B6FD022206212948FEF799
:1019A00053FE022207212748FEF74EFE0020ADF825
:1019B00004004FF6FF7002900020ADF80600ADF86D
:1019C0000C0001A92048FFF753FE0420ADF81000D9
:1019D0000020ADF81200ADF818000120ADF8140099
:1019E00004A91948FFF74CFD00231A4603211648A5
:1019F000FFF71CFD00211448FFF70CFE01211248DF
:101A0000FFF7F6FC012211460F48FFF770FD4FF477
:101A1000A060FEF77DFE1D208DF8000000208DF8EF
:101A200001008DF8020001208DF803006846FEF7E2
:101A300033FE00200549086001210348FFF7DBFC65
:101A400007B000BD00000240000400405C00002020
:101A50008EB0FEF775FDFFF793FFFFF767FCFFF70A
:101A6000D9FA42F2CF00FFF727FBFFF743FE00222F
:101A70000121DFED1B2A9FED1B2ADFED1B1A9FEDD5
:101A8000191ADFED180A9FED170A1848FEF7AEFE87
:101A90003220174908809FED170A1448FEF74EFFC1
:101AA0009FED150A1148FEF737FFB2EE040A0F4802
:101AB000FEF720FF0E48008800EE900AB8EE600A9C
:101AC0000A4880ED0D0A00BF08E00C4802680CA12E
:101AD00001A8FEF7DFFB01A8FFF712FFF5E7000002
:101AE000003C0346000000008FC2753C60000020EF
:101AF0004400002000003443000000422800002081
:101B00000D0A25642000000021F00042A2F160527D
:101B1000B2F5801F01F0004328BFD2F17F6C0BD9D2
:101B20005FEA001C43EAC20242EB507018BF7047E4
:101B300028BF20F001007047B2F5801FBCBF1846D7
:101B400070474FEA410C1CF5001F02D2084600F016
:101B500040BC70B500F0FAFA00000089FFF7F6BF4C
:101B60004FF00040A0F580007047000010B591EAEA
:101B7000030F48BF83F0004300F14483841A71EBE4
:101B8000030C05D2121943EB0C03001B61EB0C0193
:101B9000DFF824E14FEA1154A4EB135C1EEA430F73
:101BA00018BF9EEA445F73D023EA0E03DCF1200ED7
:101BB00021EA045143F4801332D322FA0CFE10EBD5
:101BC0000E0023FA0CFE41EB0E01CCF1200E03FABD
:101BD0000EFE10EB0E0051F10001B1F5801FCCF1AB
:101BE000200E32D201EB045112FA0EF2BDE8104081
:101BF00058BF7047401C38BF5FEA420218BF7047A9
:101C0000002814BF20F0010041F100014FEA410318
:101C100013F5001F38BF7047A1F1C04100F0E4BACE
:101C2000012A43EB0302ACF1200CDCF11F0E32BFA2
:101C30004FF0000E23FA0CF310EB030041EB0451BC
:101C4000B4EB115FD0D0A1EB045101F5801149082C
:101C50005FEA300001EB04510ED350F1000038BFB1
:101C600012FA0EFE08D1BDE81040C9E7401C38BF8B
:101C70005FEA4202CAD1C3E7BDE810404FEA410320
:101C800013F5001F38BF7047A1F1C04100F0ACBA96
:101C90009EEA445F08D011EA5E0FBDE8104004BF21
:101CA00001F0004100207047BDE8104070B500F021
:101CB0004DFA00BF64FBBE3E0000E0FF2DE9C041CD
:101CC00030B4DFF8A0C23CEA111418BF3CEA131488
:101CD00000F0EC8081EA03051CEA111444EAD57493
:101CE00018BF1CEA131500F0C780A4EB05044FF0E1
:101CF000004545EAC12145EAC32341EA505143EA80
:101D0000525304F17F74994204F500344FEAC02025
:101D10004FEAC22208BF904200F09C804FEA136550
:101D20000FF24016765D4FEA134506FB05F7C7F143
:101D3000807706FB07F74FEAD737A7FB03687642A1
:101D4000C8F58038A7FB06CE38BFA8F1010807FB0D
:101D500008E64FF0000EA6FB028CE6FB03CEDCF19A
:101D6000000CCEF1004E38BFAEF1010EA6FB0C58B0
:101D70004FF000074FF00005E6FB0E87A1FB08C6F9
:101D8000A0FB07CE16EB0E0645F10005E1FB07654B
:101D900015F1E04E7EBFA4F580345FEA46066D4142
:101DA00016F1800745F100054FEA17274FEA06664E
:101DB00047EA0567A6F1DE46B6F1805F4FEA1525D2
:101DC0001FD9384624F0010C05EBC471BCF1FE6F3D
:101DD00001EB0C1102D8F0BCBDE8008124425CBFCD
:101DE00001F5801E9EEAC47F02D4F0BCBDE80081EC
:101DF000244238D4F0BCA1F1C041BDE8004100F05C
:101E0000F3B94FEAD22242EA43524FEAD323A7FB67
:101E100002864FEAD02040EA415007FB03661EEAE3
:101E20000E0F4FEAD12105FB026658BFA6EB005604
:101E3000B6EB00564FEA520E4EEAC37E18EB0E0E7A
:101E400056EB530EBDD518EB02085E417F1C55F1D1
:101E50000005B6E74FF480154FF000074FF000067D
:101E60004FF00008ADE7F0BC4FF0000001F1C041B9
:101E700001F00041BDE8008111EA0C1F0CEA1315C6
:101E800000D00CE013EA0C1F00F025804FF000009A
:101E9000F0BC81EA030101F00041BDE80081F0BC23
:101EA000BDE8004181EA030100F09EB9F0BCBDE845
:101EB000004170B500F04AF9097EFC3E00F007B819
:101EC00081EA03014FF0000001F00041704781EA10
:101ED000030100F089B9F0BCBDE800414FF00000FB
:101EE00021497047FFFDFBF9F7F5F4F2F0EEEDEB59
:101EF000E9E8E6E4E3E1E0DEDDDBDAD8D7D5D4D308
:101F0000D1D0CFCDCCCBCAC8C7C6C5C4C2C1C0BF53
:101F1000BEBDBCBBBAB9B8B7B6B5B4B3B2B1B0AF59
:101F2000AEADACABAAA9A8A8A7A6A5A4A3A3A2A13D
:101F3000A09F9F9E9D9C9C9B9A99999897979695F8
:101F400095949393929191908F8F8E8E8D8C8C8B94
:101F50008B8A89898888878786858584848383821C
:101F6000828181800000FF070000F87F4FEA410373
:101F70004FEA5353A3F58063D3F11E03C8BFD3F1D7
:101F8000210C0CDD4FF0004242EAC12242EA5052DD
:101F900032FA03FC8CEAE17CACEBE1707047102B69
:101FA000C4BF0020704703F5787CBCF1FF3F04D02C
:101FB0006FF0004282EA2100704770B500F0C6F869
:101FC0004992248000207047F2E710F0004248BF99
:101FD0004042B0FA80F310FA03F10AD0C3F11D03B6
:101FE00003F580634FEA415002EB035202EBD1212B
:101FF00070474FF000007047DFF848C170B51CEA29
:10200000111E1EBF1CEA13159EEA0C0F95EA0C0F59
:1020100000F06F8081EA030423EA4C134EEAD47E79
:1020200021EA4C1141F4801143F48013AE44A1FB2A
:10203000024CA0FB0365AEF17F7E361955EB0C0513
:10204000A1FB034C4CF10003A0FB021C16EB0C0699
:10205000654153F10003094218BF46F0010613F42D
:10206000007F0BD14FEA03314FEA0530340341EAD8
:10207000155140EA16506FF003020AE04FEAC321FF
:102080004FEAC520F40241EA555140EA56506FF03C
:10209000020202EB2E4201EB025585EACE710AD014
:1020A0005FEA440C18BF24F0004450F1000041F1F5
:1020B000000120EAD47040F2FE7C624500D270BD7F
:1020C000A84214BF4FF080444FF04044002E08BF98
:1020D0000024BEF1806FA8BFA1F1C041BDE87040EF
:1020E00080F282804FF0000001F1C04101F0004118
:1020F00070479EEA0C0F0CEA131518BF95EA0C0FF7
:1021000006D04FF0000081EA030E0EF0004170BDD2
:1021100000F01CF88900013E00F007B800F009B893
:102120004FEA430C5FEA5C5C08D081EA030100F0EF
:102130005BB84FEA410C5FEA5C5CF6D14FF00000FF
:10214000014970470000FF070000F87F0EF1020E02
:102150002EF0030E5EF8046B364205D4012A43EBE1
:10216000030515F5001F12D8012841EB010C1CF5E1
:10217000001F0CD80ED14FEAD17C15F5001F0CEBD7
:102180004C0C0CF1020C08BF4CEBD37C04E04FF07C
:10219000080C01E04FEAD37C0CEB4C0526FA05F65F
:1021A00006F00706B6F1040C06D20EEB860CBDE86D
:1021B00070404CF0010C6047DFE80CF0090B0202A4
:1021C0004FF000414FF00000A1F5002170BD19460D
:1021D0001046012851EB010418BFD4F5001484BF48
:1021E000002001F0004170BD0808A0F500114FEA81
:1021F0003101704710B591EA030F48BF83F00043E7
:102200003FF5BCAC841A71EB030C07D212198CF0A9
:10221000004C43EB0C03001B61EB0C01DFF8A4E165
:102220004FEA1154A4EB135C1EEA430F18BF9EEA59
:10223000445F00F0B08023EA6E03524221EA045169
:10224000C3EB6E0338BF5B1EDCF1200E25D322FAF0
:102250000CFE10EB0E0043FA0CFE41EB0E01CCF12C
:10226000200E03FA0EFE10EB0E0051F10001CCF12E
:10227000200E29D412FA0EF201EB0451BDE81040F1
:1022800058BF7047401C1CBFB2F1004F7047002878
:102290000CBF491C20F00100704712EB020E43EB0B
:1022A000030218BF4FF0010E4EEA4202ACF1200CBF
:1022B000DCF11E0E54D943FA0CFE10EB0E0051F166
:1022C000FF31CCF11E0ED5D50EF1010E12FA0EFE25
:1022D000404141EB010101EB445C5FEA5C5C10D9D9
:1022E00010EBDE7001EB045138BFBEF1004FBDE8CA
:1022F000104018BF704700280CBF491C20F0010097
:10230000704730D24FEAD42C11F5001124F4006448
:102310001BD0B1FA81F20B3AA41AA41ED2F1200309
:10232000914030FA03F31943904001EBCC71002C3B
:1023300001EB0451BDE81040A8BF704701F1C04156
:102340004FF0000001F000417047B0FA80F310FA3E
:1023500003F100D110BDE41A173C4805C90AE4E7AF
:1023600001EB045110BD491001EB0451BDE81040D0
:102370004FEA300002E04FF0000170474A0008BF0A
:102380000042F8D0B2F5001F28BF704701F00041AD
:102390004FF0000070479EEA445F07D011EA5E0FDD
:1023A000BDE8104004BF002100207047BDE8104088
:1023B00070B5FFF7CBFE00BF40DFF63E83F0004173
:1023C000104670470000E0FF4FF04070E1EE100A49
:1023D0007047FF2141EAD050C0057047FC23000838
:1023E0000000002060000000E80100085C240008F4
:1023F00060000020A0060000040200080095BA0A50
:1024000000000000000000000102030406070809A4
:10241000000000000102030401020304060708098A
:1024200000000000000000000000000000000000AC
:10243000000000000000000000000000000000009C
:10244000000000000000000000000000000000008C
:0C24500000000000000000000000000080
:04000005080001AD41
:00000001FF
